:100000000C9425020C945B120C9434120C94821202
:100010000C9482120C9482120C944D020C944D029A
:100020000C944D020C944D020C944D020C94771FCD
:100030000C944D020C944D020C944D020C944D0204
:100040000C944D100C944D020C941D0F0C94F70E53
:100050000C944D020C944D020C944D020C944D02E4
:100060000C944D020C944D027A2F862F712F712F14
:100070006C2FA52FA52F6C2FA52FA52FA52FA52F52
:10008000A52FA52F9E2F411A481A381A381A351A4B
:10009000581A581A351A581A581A581A581A581AF3
:1000A000581A521ABF21BF21D721F02158225822B5
:1000B00058225822882158229A21582206222F227B
:1000C0008426FF25FF2516262B26842684268426B3
:1000D00084268326842683268426832683268426D4
:1000E00008000000BE922449123EABAAAA2ABECD47
:1000F000CCCC4C3E00000080BEABAAAAAA3E0000B9
:100100000000BF000000803F0000000000084178B0
:10011000D3BB4387D1133D190E3CC3BD4282AD2BE7
:100120003E68EC8276BED98FE1A93E4C80EFFFBEDF
:1001300001C4FF7F3F0000000000434C4F534520A7
:100140004F4B0D0A004552524F520D0A00414C527E
:100150004541445920434F4E4E4543540D0A0043F8
:100160004F4E4E454354204641494C0D0A00434FE3
:100170004E4E454354204F4B0D0A00222C00222C9A
:10018000220022544350002B4349505354415254AF
:100190003D002B434950434C4F53453D000D0A440D
:1001A000415441204143434550543A003E002B43C3
:1001B000495053454E443D002B4349505258474502
:1001C000543A002B43495052584745543D322C0075
:1001D0002C22494E495449414C22002C22434C4F79
:1001E00053494E4722002C22434C4F534544220092
:1001F0002C22434F4E4E454354454422002B434945
:10020000505354415455533D002B43495052584785
:1002100045543A002B43495052584745543D342CDD
:10022000000D0A2B435245473A002B435245473FA6
:10023000002B43494653523B4530000D0A2B4347A0
:100240004154543A002B43474154543F00434C4FD0
:100250005345440D0A000D0A2B4349505258474557
:10026000543A00494E495420444F4E4500494E49A6
:10027000542E2E0000000000240027002A00000059
:100280000008000201000003040700000000000055
:1002900000004E4F5420494E53455254454400539C
:1002A000494D2050554B0053494D2050494E005266
:1002B00045414459000D0A2B4350494E3A002B4307
:1002C00050494E3F0045300026465A002B434655C4
:1002D0004E3D312C31002B4346554E3D300022001F
:1002E0002B4350494E3D22002B43474154543D304F
:1002F000002B43495053485554002B43444E53431D
:1003000046473D22382E382E382E38222C22382EC1
:10031000382E342E3422002B43494653523B45306D
:10032000002B4349494352002200222C2200222C58
:1003300022002B435354543D22002B434950525822
:100340004745543D31002B4349505153454E443DA0
:1003500031002B4349504D55583D31002B43474107
:1003600054543D31002B53415042523D322C310008
:100370002B53415042523D312C31002B43474143D6
:10038000543D312C31002B434744434F4E543D31B3
:100390002C224950222C22002B53415042523D33F3
:1003A0002C312C22505744222C22002B53415042F6
:1003B000523D332C312C2255534552222C22002BF6
:1003C00053415042523D332C312C2241504E222C6D
:1003D00022002B53415042523D332C312C22436F8B
:1003E0006E74797065222C224750525322000D0AF8
:1003F0002B4353513A002B435351004552524F5215
:100400000D0A004F4B0D0A000000000000250028D7
:10041000002B000000000023002600290004040433
:10042000040404040402020202020203030303039D
:10043000030102040810204080010204081020017A
:100440000204081020003630163011241FBECFEFF2
:10045000D8E0DEBFCDBF24E0A6EDB2E001C01D9222
:10046000AC3DB207E1F712E0A0E0B1E0E4E7F1E76C
:1004700002C005900D92A63DB107D9F712E0C4E283
:10048000D2E004C02197FE010E942A36C332D10770
:10049000C9F70E94F9290C94AD380C940000DC01D6
:1004A000ED91FC910688F789E02D099591E0811185
:1004B00001C090E0892F0895CF93DF93EC01E8818C
:1004C000F9810084F185E02D0995892B11F48D893E
:1004D00001C081E0DF91CF910895DC011C96ED9180
:1004E000FC911D9780819181DC01ED91FC9106804A
:1004F000F781E02D09948FEF9FEF0895CF93DF935D
:100500001F92CDB7DEB7DC01ED91FC910288F38933
:10051000E02D41E050E0BE016F5F7F4F09950197EC
:1005200019F4898190E002C08FEF9FEF0F90DF9167
:10053000CF910895CF93DF931F92CDB7DEB7698334
:10054000DC01ED91FC910280F381E02D41E050E06F
:10055000BE016F5F7F4F09950F90DF91CF91089596
:10056000089580E090E00895CB010C9408370C9436
:1005700008370C9408370C9408370C9408370C94FF
:1005800008370C940837CB010C9473360F931F93E4
:10059000CF93DF93EC0160E070E0CB010E94D70FB6
:1005A0004E8562E971E08C859D850E94371F1D8A0A
:1005B00000E010E020E030E04BEF53E063E074E057
:1005C0008C859D850E94CB27FE01E75AFF4F118243
:1005D0001082C95ADF4F19821882DF91CF911F9183
:1005E0000F910895EF92FF920F931F93CF93DF9394
:1005F000CDB7DEB728970FB6F894DEBF0FBECDBFDC
:100600007C018B0162E172E0CE0101964F83588735
:100610000E94AB1160E170E0CE0101960E94C21011
:10062000D80112966C91CE0101960E941711CE014D
:1006300001960E94FB28F8016381CE0101960E9479
:100640001711CE0101960E94FB28D80114966C91D7
:10065000CE0101960E941711CE0101960E94FB283F
:10066000F8016581CE0101960E941711D701ED9125
:10067000FC9169817A810088F189E02D4F8158854C
:10068000C70109958C01CE0101960E946E11C80127
:1006900028960FB6F894DEBF0FBECDBFDF91CF9185
:1006A0001F910F91FF90EF900895CF92DF92EF92FC
:1006B000FF920F931F93CF93DF93DC0112962D913E
:1006C0003C911397CD91DC912D30310561F5209748
:1006D00009F45AC00A811B81E0910201F0910301E3
:1006E0000115110509F441C0D8011896CD90DC9090
:1006F00019976D917D917D010280F381E02D82E05B
:1007000091E00995C7010E945503E0910201F09123
:1007100003010280F381E02DB80182E091E00995A8
:10072000DB82CA82D7CF2E303105D9F4209761F110
:100730000A811B8101151105A1F0F801E680F780FF
:10074000C8010E945503E0910201F091030102806B
:10075000F381E02DB80182E091E00995FB82EA8205
:10076000E7CFE0910201F09103010280F381E02DD7
:10077000BE0182E091E0DF91CF911F910F91FF9038
:10078000EF90DF90CF900994DF91CF911F910F915F
:10079000FF90EF90DF90CF9008952F923F924F926D
:1007A0005F926F927F928F929F92AF92BF92CF9201
:1007B000DF92EF92FF920F931F93CF93DF93CDB70A
:1007C000DEB7A0970FB6F894DEBF0FBECDBF1C01F9
:1007D0002A013B013C8B2B8B1E8B0D8BF88EEF8AF5
:1007E000DA8EC98EBC8EAB8E62E172E0CE010D96C0
:1007F0000E94AB1160E470E0CE010D960E94C21021
:100800000E9411104B015C0160E070E0CB010E947E
:10081000D70FD1018D919C91DC01ED91FC91008469
:10082000F185E02D0995181619060CF0C3C1D10108
:100830008D919C91DC01ED91FC910284F385E02D7A
:100840000995181619062CF789831A8241E050E0A1
:10085000BE016F5F7F4FCE010D960E94E910EB89BC
:10086000FC89EF2B29F48D899E89892BE1F416C030
:100870006B897C89CE0101960E947311BE016F5F66
:100880007F4FCE010D960E94A210182FCE01019627
:100890000E946E11112339F311E0E2C1AF89B88DC6
:1008A000AB2BE1F416C06D897E89CE0101960E94C2
:1008B0007311BE016F5F7F4FCE010D960E94A21093
:1008C000182FCE0101960E946E11112339F312E008
:1008D000C7C1E98DFA8DEF2BE1F416C06F89788DD1
:1008E000CE0101960E947311BE016F5F7F4FCE0152
:1008F0000D960E94A210182FCE0101960E946E1133
:10090000112339F313E0ACC18B8D9C8D892B61F5DC
:1009100016C0698D7A8DCE0101960E947311BE01B9
:100920006F5F7F4FCE010D960E94A210182FCE014F
:1009300001960E946E11112339F314E091C166E50E
:1009400072E0CE0101960E947311BE016F5F7F4F6E
:10095000CE010D960E94A210182FCE0101960E9482
:100960006E11111117C060C06B8D7C8DCE01019688
:100970000E947311BE016F5F7F4FCE010D960E94E2
:10098000A210182FCE0101960E946E111123B9F208
:1009900015E066C1D1016D917C914CE2CE010796C4
:1009A0000E94E611CE0107960E94971061307105F2
:1009B0008105910561F5F101608171814AE0CE0107
:1009C00001960E94E611CE0101960E9497106B01DC
:1009D0007C01CE0101960E946E11F5E0CF16D10484
:1009E00078F48FEFC81AD80ACC0CDD1CF101EC0D9D
:1009F000FD1D0190F081E02D309711F091E0968B74
:100A000062E172E0CE010D960E94421108C04B8552
:100A10005C856F817885CE010D960E94E910CE012C
:100A200007960E946E11F5CE6DE472E0CE0101963C
:100A30000E947311BE016F5F7F4FCE010D960E9421
:100A4000A210182FCE0101960E946E11112309F4F5
:100A5000E0CE09891A890850110960E172E0CE01DF
:100A600001960E94AB112D813E812115310591F136
:100A700089899A89009771F18217930758F10817AD
:100A8000190718F08C0101501109ED84FE84498189
:100A90005A81C701CC24CA94DD24DA949701200F2F
:100AA000311F28173907C8F0BA012F8F38A34D8F8F
:100AB0005E8F0E9493382F8D38A14D8D5E8D0097EB
:100AC00061F0BC016E197F090617170708F06B016A
:100AD0000196E7CF0FEF1FEF01C08601CE0101960F
:100AE0000E946E117801A2E0EA0EF11C89899A89B0
:100AF000E816F90678F4CD84DE846CE270E0C60175
:100B00008E0D9F1D0E947838009721F08C010C19E2
:100B10001D0902C00FEF1FEF0E151F0528F49E2DB3
:100B20008F2D7801092F182F62E172E0CE01019616
:100B30000E94AB1189899A89E816F906C0F48017DA
:100B4000910708F48C01ED85FE85E00FF11FD08040
:100B500010826D857E856E0D7F1DCE0101960E94EF
:100B600042118D859E85FC01E00FF11FD082CE01E0
:100B700001960E9497106B017C01CE0101960E94A4
:100B80006E11B5E0CB16D10470F4EFEFCE1ADE0A89
:100B9000CC0CDD1CF101EC0DFD1D0190F081E02D70
:100BA000309709F0158A62E172E0CE010D960E943D
:100BB00042112FCE0E941110DC01CB018819990936
:100BC000AA09BB0984159505A605B70508F41CCE2E
:100BD000ED84FE84E114F104E1F109891A8901151B
:100BE0001105B9F157016501BFEFAB1ABB0AF60158
:100BF0008081082E000C990B0E94B932892B99F73D
:100C0000015011090E0D1F1DD8018C91082E000CEA
:100C1000990B0E94B932892B79F4A8014F5F5F4F7D
:100C20004C195D095A8B498BEC14FD0458F4B6013C
:100C3000C7010E946F3806C00C151D0570F30150E6
:100C40001109E2CFED85FE8589899A89E80FF91FA0
:100C5000108262E172E0CE010D960E94421110E016
:100C6000CE010D960E946E11812FA0960FB6F894BA
:100C7000DEBF0FBECDBFDF91CF911F910F91FF90CF
:100C8000EF90DF90CF90BF90AF909F908F907F902C
:100C90006F905F904F903F902F9008956F927F924A
:100CA0008F929F92AF92BF92CF92DF92EF92FF927C
:100CB0000F931F93CF93DF9300D000D000D0CDB718
:100CC000DEB74C016C01F12CD6011296AD90BC90B0
:100CD0001397A114B10409F46CC0F5018689882327
:100CE00009F467C0168A4F2D64E172E0C4010E94C6
:100CF000371F00E010E020E030E04BEF53E069E008
:100D000072E0C4010E94CB27813051F1D6011296C6
:100D10006D907C9013974F2D6DEF71E0C4010E9490
:100D2000371F00ED11E02BED31E046EE51E060EFB2
:100D300071E0C4010E94CB27E82E00E010E020E023
:100D400030E04BEF53E063E074E0C4010E94CB2736
:100D500091E0E91290E0F301958B612C712C26C093
:100D6000C4010E940129C4010E940129D4016D918E
:100D70007C914AE0CE0101960E94E611CE010196D7
:100D80000E9497103B01CE0101960E946E1100E077
:100D900010E020E030E04BEF53E063E074E0C4018A
:100DA0000E94CB276114710409F4B0CFF501708A59
:100DB0006786F2E0CF0ED11CF39485E0F81284CF61
:100DC000D4018D919C91DC01ED91FC910084F18521
:100DD000E02D0995892B91F0A12CB12CC12CD12C9F
:100DE000E12CF12C00E010E020E030E04AE050E09F
:100DF00060E070E0C4010E94CD03E2CF26960FB6FA
:100E0000F894DEBF0FBECDBFDF91CF911F910F9140
:100E1000FF90EF90DF90CF90BF90AF909F908F901A
:100E20007F906F9008952F923F924F925F926F92B2
:100E30007F928F929F92AF92BF92CF92DF92EF926A
:100E4000FF920F931F93CF93DF93CDB7DEB72E970B
:100E50000FB6F894DEBF0FBECDBF7C011B015C87CF
:100E60004B8760E070E0CB010E94D70FD7011C9642
:100E70008D919C911D970E944E06412C512CF7019B
:100E8000E95AFF4FFA87E987C701875A9F4F98872A
:100E90008F83D7015796BE87AD87EB85FC854E16AD
:100EA0005F0608F01CC1D70155968C91882309F480
:100EB00016C1E985FA8500811181AF81B8858D91D0
:100EC0009C91081B190B17FF02C0005C1F4F8B85FC
:100ED0009C85841995098017910708F48C010115E8
:100EE000110509F441C048013101EF81F885A08066
:100EF000B180A985BA858D919C918A199B0997FF2C
:100F000002C0805C9F4F009729F4200E311E400ED6
:100F1000511EC3CF20E430E02A193B09582D492D3A
:100F20002815390514F4522F432FC52ED42E8C15B5
:100F30009D050CF46C016D857E856A0D7B1DA601F7
:100F4000C3010E946F38AC0CBD1CBFE3AB22BB24B5
:100F5000EF81F885B182A0828C189D086C0C7D1CF5
:100F60008114910491F2C1CFD7011C968D919C916F
:100F70001D970E944E06F70187859089892B09F4F9
:100F8000AEC09684AF81B8850D911C91E985FA8534
:100F900080819181081B190B1016110614F0005C5A
:100FA0001F4FD7011C96CD90DC901D970150110961
:100FB0002CE2492D63EC71E0C6010E94B61C00E0F2
:100FC00010E020E030E04BEF53E068EB71E0C60149
:100FD0000E94CB27813009F060CFC6010E94012911
:100FE000C6010E940129F601608171814CE2CE01A7
:100FF00001960E94E611CE0101960E9497103B01D6
:10100000CE0101960E946E115601A90CB11CA90CCB
:10101000B11CD50112960D911C911397F6016081B8
:1010200071814AE0CE0101960E94E611CE0101963F
:101030000E949710D80150967C936E931F97CE0113
:1010400001960E946E1100E010E006151705D8F514
:10105000F60180819181DC01ED91FC910084F185A4
:10106000E02D0995892B31F460E070E0CB010E94FE
:10107000D70FEECFF60180819181DC01ED91FC91DB
:101080000284F385E02D0995F501428153814A01DF
:10109000F7E58F0E911CF401A081B1819D012F5FB6
:1010A0003F4F2F73332732966081718126173707A0
:1010B00039F0A40FB51F57968C93D4012D933C9310
:1010C0000F5F1F4FC2CF00E010E020E030E04BEF99
:1010D00053E063E074E0C6010E94CB27DECEC2017C
:1010E0002E960FB6F894DEBF0FBECDBFDF91CF9125
:1010F0001F910F91FF90EF90DF90CF90BF90AF9036
:101100009F908F907F906F905F904F903F902F9027
:1011100008958F929F92AF92BF92EF92FF920F939A
:101120001F93CF93DF93EC0160E070E0CB010E944E
:10113000D70F8E01095A1F4F7E0129E5E20EF11CDF
:10114000F80120813181F70180819181281B390BC1
:1011500037FF3FC0203CFFEF3F0751F58D898823C3
:10116000E9F00E94111089889A88AB88BC88DC015C
:10117000CB0188199909AA09BB09853F9140A105AE
:10118000B10540F081E08E8B0E941110698B7A8B43
:101190008B8B9C8B8C859D850E944E06F80120814F
:1011A0003181F70180819181281B390B37FF02C003
:1011B000205C3F4F8F859889820F931FDF91CF91DD
:1011C0001F910F91FF90EF90BF90AF909F908F90E5
:1011D00008952115310511F2EDCF8F929F92AF92B4
:1011E000BF92CF92DF92EF92FF920F931F93CF9314
:1011F000DF9300D000D000D0CDB7DEB76C014B013B
:101200005A0160E070E0CB010E94D70FD6011C9616
:101210008D919C911D970E944E06F601E484F58401
:1012200085012CE246856EEA71E0C7010E94B61C7A
:1012300000E010E020E030E04BEF53E06CEA71E0BA
:10124000C7010E94CB27813019F000E010E037C0C1
:10125000D7018D919C91DC01ED91FC910280F3818D
:10126000E02DA501B4010995F70180819181DC0190
:10127000ED91FC910680F781E02D099500E010E0EA
:1012800020E030E04BEF53E06DE971E0C7010E94D0
:10129000CB278130D1F6C7010E940129F701608177
:1012A00071814AE0CE0101960E94E611CE010196BD
:1012B0000E9497108B01CE0101960E946E11C80109
:1012C00026960FB6F894DEBF0FBECDBFDF91CF914B
:1012D0001F910F91FF90EF90DF90CF90BF90AF9054
:1012E0009F908F9008958F929F92AF92BF92CF92CE
:1012F000DF92EF92FF920F931F93CF93DF934C01F6
:101300007B018A01DC01ED91FC910488F589E02DD7
:10131000099560E070E0CB010E94D70FF401E75A15
:10132000FF4F11821082329711821082F401D6840D
:10133000C485D58563E172E0888199810E94F50EAC
:1013400067E871E0888199810E942D0E4D2D50E053
:1013500060E070E02AE0888199810E94660E6CE26C
:10136000888199810E94260E62E871E088819981C6
:101370000E942D0E6EE771E0888199810E942D0EEA
:10138000B701888199810E94F50E6BE771E0888131
:1013900099810E942D0EA80160E070E02AE088810A
:1013A00099810E94660E60E172E0888199810E94B5
:1013B000F50E88819981DC01ED91FC910680F78121
:1013C000E02D099560E070E0CB010E94D70F8AE321
:1013D000A82E81E0B82E95E4C92E91E0D92E2DE4F7
:1013E000E22E21E0F22E0FE511E02EE631E048EF8B
:1013F00054E261E070E0CE010E94CD0391E08130C3
:1014000009F090E0F401958B892F90E0DF91CF9166
:101410001F910F91FF90EF90DF90CF90BF90AF9012
:101420009F908F9008958F929F92AF92BF92EF926C
:10143000FF920F931F93CF93DF9300D000D000D083
:10144000CDB7DEB77C0165E472E00E94541D00E078
:1014500010E020E030E04BEF53E06BE372E0C701B7
:101460000E94CB27813089F5F701608171814AE0C4
:10147000CE0101960E94E611CE0101960E949710BE
:101480004B015C01CE0101960E946E1100E010E05C
:1014900020E030E04BEF53E063E074E0C7010E94CE
:1014A000CB278A94892889F461E372E0C7010E94FE
:1014B000541D20E030E04BEF53E063E074E0C701DF
:1014C0000E94CB2791E0813009F090E0892F269689
:1014D0000FB6F894DEBF0FBECDBFDF91CF911F9145
:1014E0000F91FF90EF90BF90AF909F908F900895D5
:1014F000AF92BF92CF92DF92EF92FF920F931F9322
:10150000CF93DF9300D000D000D0CDB7DEB75C0121
:101510006AE272E00E94541D00E010E020E030E03A
:101520004BEF53E061E272E0C5010E94CB278130AE
:1015300019F5C5010E940129F501608171814AE018
:10154000CE0101960E94E611CE0101960E949710ED
:101550006B017C01CE0101960E946E1120E030E00B
:101560004BEF53E063E074E0C5010E94CB27960186
:101570002130310549F002C024E030E081E025301F
:10158000310519F080E001C081E026960FB6F8948D
:10159000DEBF0FBECDBFDF91CF911F910F91FF90A6
:1015A000EF90DF90CF90BF90AF9008950895089589
:1015B0001F93CF93DF93FC011481112359F0EC01A9
:1015C0008381882311F061E001C060E08A810E947C
:1015D0004F0F1C82812FDF91CF911F9108950895A5
:1015E000FC01808591858617970754F08681978145
:1015F000681779072CF081E08287758364830895EA
:1016000080E00895EF920F931F93CF93DF93FC0137
:1016100012867183608353834283378326831187C5
:101620000087EE2041F0BA01DF91CF911F910F9119
:10163000EF900C94F00A8B01EC01CB010E94F9337E
:101640008C83C80101960E94F9338D83DF91CF917D
:101650001F910F91EF9008950895FC0182810E94DF
:101660001D12BC01990F880B990B0E94D93220E002
:1016700030E04CE853E40E94463420E030EC49E38B
:1016800054E40E94B33420E030E048EC52E40E947D
:1016900038339B01AC0160E070E088EC92E40E947A
:1016A00046340E942535CB0108950895EF92FF92AC
:1016B0000F931F93CF93DF931F92CDB7DEB77C01BB
:1016C000FC0100811181C80169830E94F93369819D
:1016D000681719F0C8010E940134C7010F90DF910B
:1016E000CF911F910F91FF90EF900895CF92DF92CD
:1016F000EF92FF920F931F93CF93DF9300D0CDB75C
:10170000DEB7FC0122852223B1F18C01128666E14D
:1017100072E087E593E00E94F50EF801C080D18069
:101720000D2C000CEE08FF08F7FE0EC06DE287E5F9
:1017300093E00E94260E44275527BA014C195D09F3
:101740006E097F092AE003C02AE0B701A60187E5F8
:1017500093E00E94660E60E172E087E593E00E94EC
:10176000510EF8016481808191819A838983CE0131
:1017700001960E94560B0F900F90DF91CF911F9111
:101780000F91FF90EF90DF90CF900895AF92BF92AE
:10179000CF92DF92EF92FF920F931F93CF93DF933D
:1017A00000D0CDB7DEB78C016B01FC0180818F5F6B
:1017B0008A3010F4808302C0F8011082F601808123
:1017C000F80181838081F5E08F9FC0011124F6012B
:1017D00061915F018C599F4F0E940134F801E080B4
:1017E000F5E0EF9E7001112425E6E20EF11C85E084
:1017F000C80ED11CF50161915F01FA82E982CE0128
:1018000001960E94560BFFEFEF1AFF0AAC14BD04BD
:1018100089F7F801608183E690E00E9401340F901F
:101820000F90DF91CF911F910F91FF90EF90DF907C
:10183000CF90BF90AF9008950895CF92DF92EF922E
:10184000FF920F931F93CF93DF936C017A018B016B
:10185000C0E0D0E0CE15DF0589F0D8016D918D0193
:10186000D601ED91FC910190F081E02DC601099522
:10187000892B11F47E0102C02196ECCFC701DF91C4
:10188000CF911F910F91FF90EF90DF90CF9008952F
:101890003FB7F89480912D0390912E03A0912F03D0
:1018A000B091300326B5A89B05C02F3F19F00196D3
:1018B000A11DB11D3FBFBA2FA92F982F8827820FD6
:1018C000911DA11DB11DBC01CD0142E0660F771F26
:1018D000881F991F4A95D1F70895FC01538D448DB7
:1018E000252F30E0842F90E0821B930B541710F0CB
:1018F000CF96089501970895FC01918D828D9817D8
:1019000061F0828DDF01A80FB11D5D968C91928DE3
:101910009F5F9F73928F90E008958FEF9FEF0895E0
:10192000FC01918D828D981731F0828DE80FF11DA9
:10193000858D90E008958FEF9FEF0895FC01918DC4
:10194000228D892F90E0805C9F4F821B91098F73BD
:101950009927089587E593E00E949E0C21E0892B4A
:1019600009F420E0822F0895FC01848DDF01A80F87
:10197000B11DA35ABF4F2C91848D90E001968F73B7
:101980009927848FA689B7892C93A089B1898C91D6
:1019900080648C93938D848D981306C00288F3899C
:1019A000E02D80818F7D80830895EF92FF920F93C9
:1019B0001F93CF93DF93EC0181E0888F9B8D8C8DFB
:1019C000981305C0E889F989808185FD24C0F62E29
:1019D0000B8D10E00F5F1F4F0F731127E02E8C8DC2
:1019E000E8120CC00FB607FCFACFE889F9898081AC
:1019F00085FFF5CFCE010E94B40CF1CF8B8DFE0197
:101A0000E80FF11DE35AFF4FF0820B8FEA89FB8943
:101A10008081806207C0EE89FF896083E889F98947
:101A200080818064808381E090E0DF91CF911F917D
:101A30000F91FF90EF900895CF93DF93EC01888D85
:101A40008823C9F0EA89FB89808185FD05C0A889C2
:101A5000B9898C9186FD0FC00FB607FCF5CF808148
:101A600085FFF2CFA889B9898C9185FFEDCFCE0192
:101A70000E94B40CE7CFDF91CF91089580E090E011
:101A8000892B29F00E94AA0C81110C940000089562
:101A900008952091D8023091D9022817390771F49E
:101AA0009091D6028091D702981741F0E091D6022A
:101AB000F0E0E851FD4F808190E008958FEF9FEFB7
:101AC000089508951F93CF93DF93DC015C962D91C9
:101AD0003C915D972115310539F481E090E0139632
:101AE0009C938E9312973DC05196ED91FC91529725
:101AF00050969C915097892F80951FB75E964C9178
:101B00005E9741FB772770F941FD6095F89440811D
:101B1000772311F0492B01C048234083E901219725
:101B2000F1F748E0508160FF02C0592B01C05823F3
:101B30005083E9012197F1F76695415099F7772392
:101B400021F090818923808303C08081982B90832A
:101B50001FBF5C968D919C915D970197F1F721E0F5
:101B600030E0C901DF91CF911F9108952091D802F3
:101B70003091D9022817390771F48091D70220914A
:101B8000D60290E0805C9F4F821B910960E470E078
:101B90000E94F435089580E090E008952091D802E5
:101BA0003091D90228173907B9F49091D602809163
:101BB000D702981789F0E091D602F0E0E851FD4F86
:101BC00080812091D60230E02F5F3F4F2F73332763
:101BD0002093D60290E008958FEF9FEF0895E82FAD
:101BE000F0E0EE0FFF1FEC50FC4F0190F081E02D74
:101BF000309729F080859185019691878087089597
:101C000085E00C94EF0D84E00C94EF0D83E00C94D0
:101C1000EF0D82E00C94EF0D81E00C94EF0D80E06D
:101C20000C94EF0D0E946A38CF93DF93EC0188810A
:101C30009981009711F00E940837198218821D823D
:101C40001C821B821A82DF91CF910895DC01ED91F5
:101C5000FC910190F081E02D0994EF92FF920F9397
:101C60001F93CF93DF938C017B01C0E0D0E0F7019D
:101C7000EC0FFD1F6491662361F0D801ED91FC919A
:101C80000190F081E02DC8010995892B11F0219672
:101C9000EECFCE01DF91CF911F910F91FF90EF908A
:101CA00008956115710579F0FB0101900020E9F7B5
:101CB0003197AF01461B570BDC01ED91FC9102807F
:101CC000F381E02D099480E090E008954F925F92B7
:101CD0006F927F92EF92FF920F931F93CF93DF93B8
:101CE000CDB7DEB7A1970FB6F894DEBF0FBECDBF5C
:101CF0007C01FA01CB0119A2223008F42AE08E01FE
:101D00000F5D1F4F422E512C612C712CBF01A3017E
:101D100092010E940836F901CA01015011096A3086
:101D200014F4605D01C0695CD8016C93232B242BF3
:101D3000252B61F7B801C7010E94510EA1960FB67D
:101D4000F894DEBF0FBECDBFDF91CF911F910F91F1
:101D5000FF90EF907F906F905F904F9008958F92DB
:101D60009F92AF92BF92CF92DF92EF92FF920F932A
:101D70001F93CF93DF937C018B016C0182E0C80E2F
:101D8000D11C4701E5E08E0E911CC0E0D0E0F601C9
:101D900041916F0150E060E070E02AE0C8010E94CC
:101DA000660E5C016EE2C8010E94260E8A0D9B1D24
:101DB000C80FD91FC814D90451F7F701458150E065
:101DC00060E070E02AE0C8010E94660E8C0F9D1F43
:101DD000DF91CF911F910F91FF90EF90DF90CF9007
:101DE000BF90AF909F908F9008950C94510E1F92CA
:101DF0000F920FB60F9211242F933F934F935F933F
:101E00006F937F938F939F93AF93BF93EF93FF93C2
:101E100087E593E00E94B40CFF91EF91BF91AF91E1
:101E20009F918F917F916F915F914F913F912F91F2
:101E30000F900FBE0F901F9018951F920F920FB624
:101E40000F9211242F938F939F93EF93FF93E09121
:101E50006703F09168038081E0916D03F0916E0358
:101E600082FD12C09081809170038F5F8F732091EB
:101E70007103821751F0E0917003F0E0E95AFC4FD2
:101E8000958F8093700301C08081FF91EF919F91A6
:101E90008F912F910F900FBE0F901F90189590E08B
:101EA000FC01E258FD4F3491FC01EF5CFB4F2491A3
:101EB000FC01E35EFB4FE491EE2309F43BC03323C6
:101EC00039F1333091F038F43130A9F0323001F586
:101ED00084B58F7D12C0373091F03830A1F03430A6
:101EE000B9F4809180008F7D03C0809180008F774E
:101EF000809380000DC084B58F7784BD09C0809128
:101F0000B0008F7703C08091B0008F7D8093B000C8
:101F1000F0E0EE0FFF1FE75FFB4FA591B4918FB785
:101F2000F894EC91611103C020952E2301C02E2B53
:101F30002C938FBF0895CF93DF9390E0FC01EF5C6B
:101F4000FB4F2491FC01E35EFB4F8491882361F1F8
:101F500090E0880F991FFC01EC58FD4FC591D4917A
:101F6000FC01E75FFB4FA591B491611109C09FB7D8
:101F7000F8948881209582238883EC912E230BC0CE
:101F8000623061F49FB7F8943881822F8095832363
:101F90008883EC912E2B2C939FBF06C08FB7F894AB
:101FA000E8812E2B28838FBFDF91CF9108958F92E8
:101FB0009F92AF92BF92CF92DF92EF92FF926B010E
:101FC0007C010E94480C4B015C01C114D104E10466
:101FD000F104F1F00E94480CDC01CB018819990949
:101FE000AA09BB09883E9340A105B10570F321E021
:101FF000C21AD108E108F10888EE880E83E0981E25
:10200000A11CB11CC114D104E104F10419F7DDCF06
:10201000FF90EF90DF90CF90BF90AF909F908F9008
:1020200008952FB7F8946091290370912A03809145
:102030002B0390912C032FBF08950F931F93CF93E1
:10204000DF93EC010E941110688779878A879B874C
:10205000E881F9810284F385E02DCE01099597FF8F
:1020600017C00E941110088519852A853B85DC015F
:10207000CB01801B910BA20BB30B0C811D812E8118
:102080003F8180179107A207B30710F38FEF9FEFEF
:10209000DF91CF911F910F9108951F920F920FB66C
:1020A0000F9211242F933F938F939F93AF93BF93DE
:1020B0008091290390912A03A0912B03B0912C03C6
:1020C0003091280323E0230F2D3720F40196A11D22
:1020D000B11D05C026E8230F0296A11DB11D209356
:1020E00028038093290390932A03A0932B03B09392
:1020F0002C0380912D0390912E03A0912F03B0917A
:1021000030030196A11DB11D80932D0390932E03E2
:10211000A0932F03B0933003BF91AF919F918F9104
:102120003F912F910F900FBE0F901F901895FC01BB
:1021300080819181009711F00C94483260E070E04A
:10214000CB010895FC0124813581FB014481558137
:1021500024173507A0F0FC0180819181009779F068
:10216000FB01608171816115710549F0241B350BFC
:10217000820F931F0E94833821E0892B09F020E011
:10218000822F08950F931F93CF93DF93EC018881E3
:102190009981009729F02A813B812617370788F417
:1021A0008B016F5F7F4F0E94A037009761F099838A
:1021B00088831B830A832C813D81232B11F4FC012E
:1021C000108281E001C080E0DF91CF911F910F91DB
:1021D0000895EF92FF920F931F93CF93DF93FC012B
:1021E000248135816115710511F480E019C0411514
:1021F0005105A9F07B01EC018A01020F131FB80100
:102200000E94C210882389F3288139818C819D81A5
:10221000B701820F931F0E948C381D830C8381E0CD
:10222000DF91CF911F910F91FF90EF900895EF9262
:10223000FF920F931F93CF93DF9300D000D0CDB7C1
:10224000DEB77C01862F4AE08E010F5F1F4FB80179
:1022500090E00E947F32F80101900020E9F7319769
:10226000AF01401B510BB801C7010E94E9100F904C
:102270000F900F900F90DF91CF911F910F91FF90D2
:10228000EF900895EF92FF920F931F93CF93DF93F8
:102290008C017B016115710569F0FB010190002043
:1022A000E9F73197EF01C61BD70BBE010E94C210A0
:1022B000811104C0C8010E94140E08C0F801D58322
:1022C000C483B701808191810E948C38C801DF915D
:1022D000CF911F910F91FF90EF900895FC018081A5
:1022E00091810C940837EF92FF920F931F93CF9335
:1022F000DF93EC01198218821B821A821D821C82D4
:102300006115710509F18B01CB010E9476327C01C8
:10231000BC01CE010E94C210811109C0CE01DF9123
:10232000CF911F910F91FF90EF900C94140EFD82AE
:10233000EC82B80188819981DF91CF911F910F9133
:10234000FF90EF900C946F32DF91CF911F910F911E
:10235000FF90EF900895EF92FF920F931F93CF930A
:10236000DF93EC01198218821B821A821D821C8263
:102370006115710521F18B01FB0101900020E9F746
:1023800031977F01E61AF70AB7010E94C210811146
:1023900009C0CE01DF91CF911F910F91FF90EF9077
:1023A0000C94140EFD82EC82B80188819981DF9132
:1023B000CF911F910F91FF90EF900C948C38DF918B
:1023C000CF911F910F91FF90EF900895CF92DF92E0
:1023D000EF92FF920F931F93CF93DF9300D0CDB76F
:1023E000DEB78C016B01E42E62E172E00E94AB115A
:1023F000C6010E941D100E2C000CFF0897FD11C095
:102400008E159F0571F089831A8241E050E0BE016C
:102410006F5F7F4FC8010E94E910C6010E941D1026
:10242000EDCFC8010F900F90DF91CF911F910F91C9
:10243000FF90EF90DF90CF9008958E3008F08E508F
:102440008770806480937C0080917A0080648093A0
:102450007A0080917A0086FDFCCF809178002091EF
:10246000790090E0922B08951F920F920FB60F9271
:1024700011242F933F934F935F936F937F938F9389
:102480009F93AF93BF93EF93FF93E0910601F09179
:1024900007010995FF91EF91BF91AF919F918F91A6
:1024A0007F916F915F914F913F912F910F900FBE50
:1024B0000F901F9018951F920F920FB60F92112434
:1024C0002F933F934F935F936F937F938F939F933C
:1024D000AF93BF93EF93FF93E0910401F091050157
:1024E0000995FF91EF91BF91AF919F918F917F914E
:1024F0006F915F914F913F912F910F900FBE0F9071
:102500001F9018951F920F920FB60F9211242F93C0
:102510003F934F935F936F937F938F939F93AF936B
:10252000BF93EF93FF93E091D802F091D9023097D7
:1025300009F451C0968DA685B785858591FF04C0A5
:102540009C91892329F447C09C91892309F043C0B9
:10255000A389B4899C918589809589238C938689E8
:1025600097890197F1F7608D718DA685B78555859F
:1025700038E020E0CB010197F1F7822F90E09595AC
:102580008795282F4C91452309F02068315091F709
:10259000868D81FD20958091D70290E001968F7302
:1025A00099273091D602381749F0A091D702B0E0B0
:1025B000A851BD4F2C938093D70203C0868D8160B4
:1025C000868F828D938D0197F1F7A389B4899C91B1
:1025D0008589892B8C93FF91EF91BF91AF919F914A
:1025E0008F917F916F915F914F913F912F910F90BC
:1025F0000FBE0F901F901895CF92DF92EF92FF922F
:102600000F931F93CF93DF93EC01653608F064E6D8
:102610006C8370E080E090E00E94D93223E333E3E2
:1026200043E250E40E9438330E9425356B017C015F
:102630008B01CB8161E08C2F0E949B0FC114D104D0
:1026400009F447C00F3F110509F445C0EC2FF0E035
:10265000E258FD4FE491E330F9F048F4E130B9F08D
:10266000E230A1F584B5806284BDC8BC40C0E730CB
:10267000E9F0E83019F1E43049F58091800080629A
:1026800080938000D0928B00C0928A0030C084B5C5
:10269000806884BDC7BC2BC0809180008068809317
:1026A0008000D0928900C092880021C08091B00043
:1026B00080688093B000C092B30019C08091B000D0
:1026C00080628093B000C092B40011C00038110540
:1026D00014F460E001C061E08C2FDF91CF911F9175
:1026E0000F91FF90EF90DF90CF900C944F0FDF9100
:1026F000CF911F910F91FF90EF90DF90CF900895B1
:102700000F931F93CF93DF9361157105A1F08B0198
:10271000FC01C081D181209771F068817981C80165
:102720000E948338892B19F4CE01049606C00A80D2
:10273000DB81C02DF0CF80E090E0DF91CF911F9141
:102740000F910895CF93DF93EC0188819981892BB4
:1027500021F40E94B5269983888388819981DF912D
:10276000CF9108957F928F929F92AF92BF92CF9216
:10277000DF92EF92FF920F931F93CF93DF936C0141
:10278000892B91F1E12CF12C10E0D0E0C0E0812CFC
:10279000712CF0E0E0E0C6018E0D911DDC019C90F3
:1027A000292D2F77B7E0EB9E5001112430E040E057
:1027B00050E060E070E080E090E00A2D0E9430364A
:1027C000F22A132BD42BC52B862A772AF82BE92B38
:1027D000E39497FCE0CF2F2D312F4D2F5C2F682DE8
:1027E000772D8F2F9E2F08C020E030E040E050E092
:1027F00060E070E080E090E0DF91CF911F910F9159
:10280000FF90EF90DF90CF90BF90AF909F908F9010
:102810007F90089580E008950895089581E00895D7
:102820000F931F93CF93DF93EC01E98DFA8D019005
:10283000F081E02D00891189E881F9810088F18912
:10284000E02D0995811103C040E752E602C042E73E
:1028500052E661E772E0898D9A8DF801099521E0D1
:10286000892B09F420E0822FDF91CF911F910F91E6
:10287000089581E0089581E008952091DC0230916F
:10288000DD0212161306FCF4DC015596ED91FC9165
:1028900056973097A1F01386128684859585A68574
:1028A000B785892B8A2B8B2B11F021503109148687
:1028B0001586168617860280F381E02DEACF3093C5
:1028C000DD022093DC020895CF93DF93EC01E881D1
:1028D000F9810288F389E02D67E070E00995898D20
:1028E0009A8DDC01ED91FC910488F589E02D099524
:1028F000E881F9810288F389E02D66E070E0CE017D
:102900000995CE01DF91CF910C943D140F931F9345
:10291000CF93DF938C01EA01DC0114968D919C9199
:102920001597DC01ED91FC910480F581E02D09956E
:10293000882339F0F80122813381C20FD31FD3835A
:10294000C283DF91CF911F910F9108950F931F9331
:10295000CF93DF938C01EA01DC0114968D919C9159
:102960001597DC01ED91FC910680F781E02D20E0C8
:102970000995882339F0F80122813381C20FD31FD2
:10298000D383C283DF91CF911F910F910895FC01F2
:1029900022813381420F531F5383428381E0089584
:1029A000FC01228133812F30310569F420910F041D
:1029B000211103C026E030E002C025E030E0FC0138
:1029C00033832283089502960E94CC1A81110C94BD
:1029D000E6288BE094E00C94D80ACF93DF93EC01C7
:1029E000AF96CE010E94780A882329F0CE01DF91AC
:1029F000CF910C94130A80E0DF91CF9108952F922C
:102A00003F924F925F926F927F928F929F92AF927E
:102A1000BF92CF92DF92EF92FF920F931F93CF93CB
:102A2000DF93DC0197962D913C919897232B09F425
:102A3000BFC24C01EC01AF96CE010E94780A811111
:102A40009FC0CE010E94E827882309F4B1C266ED39
:102A500072E0CE010E94541DA12CB12CC12CD12CAE
:102A6000E12CF12C0BEF13E023E034E040E157E2DE
:102A700060E070E0CE010E94CD03813009F098C281
:102A80006CEC72E0CE010E94541D23E034E040E182
:102A900057E260E070E0CE010E94CD03813009F082
:102AA00087C268EB7BE080E090E00E94D70FCE0108
:102AB0000E94E827882309F47BC268EC72E0CE010B
:102AC0000E94541D00E010E020E030E04BEF53E0A6
:102AD00063E074E0CE010E94CB2765EC72E0CE018A
:102AE0000E94541D20E030E04BEF53E063E074E0BF
:102AF000CE010E94CB27813009F05AC20E941110EA
:102B00002B013C010E941110DC01CB0184199509B5
:102B1000A609B70980319742A105B10508F0E0C1C7
:102B20006EEB72E0CE010E94541D00E010E020E048
:102B300030E04BEF53E065EB72E0CE010E94CB2713
:102B4000813039F068EE73E080E090E00E94D70FAA
:102B5000D9CF02E912E02FE932E047EA52E06FEA0A
:102B600072E0CE010E94CB2700E010E020E030E0D0
:102B70004BEF53E063E074E0CE010E94CB27B0C17D
:102B8000CE010E94130A882311F081E012C2D40101
:102B90009B964D905C909C9799966D907C909A979F
:102BA00097962D903C90989761EF72E0CE010E942D
:102BB000541DA12CB12CC12CD12CE12CF12C0BEFEC
:102BC00013E023E034E040E65AEE60E070E0CE012E
:102BD0000E94CD03813071F468EE72E0CE010E9454
:102BE000541D23E034E040E65AEE60E070E0CE0190
:102BF0000E94CD0362ED73E0CE010E94541D00E0FF
:102C000010E020E030E04BEF53E063E074E0CE01F1
:102C10000E94CB2722E2A1016FEB73E0CE010E945C
:102C20000C1D20E030E04BEF53E063E074E0CE0198
:102C30000E94CB2761147104A1F0F30180818823E5
:102C400081F022E2A3016BEA73E0CE010E940C1D29
:102C500020E030E04BEF53E063E074E0CE010E94EF
:102C6000CB2741145104B1F0D2018C91882391F00B
:102C700022E2A20168E973E0CE010E940C1D00E08F
:102C800010E020E030E04BEF53E063E074E0CE0171
:102C90000E94CB2722E2A10166E873E0CE010E94E8
:102CA0000C1D00E010E020E030E04BEF53E063E06B
:102CB00074E0CE010E94CB276BE773E0CE010E9447
:102CC000541DA12CB12CC12CD12CE12CF12C0BEFDB
:102CD00013E023E034E040E65AEE60E070E0CE011D
:102CE0000E94CD0360E773E0CE010E94541D23E0F3
:102CF00034E048E05CE461E070E0CE010E94CD0386
:102D000065E673E0CE010E94541D23E034E040E309
:102D100055E760E070E0CE010E94CD03813009F0FC
:102D200047C16CE573E0CE010E94541D23E034E0FE
:102D300040E65AEE60E070E0CE010E94CD038130A3
:102D400009F036C162E573E0CE010E94541D00E037
:102D500010E020E030E04BEF53E063E074E0CE01A0
:102D60000E94CB27813009F023C166E473E0CE01D5
:102D70000E94541D20E030E04BEF53E063E074E02C
:102D8000CE010E94CB27813009F012C16AE373E0C3
:102D9000CE010E94541D20E030E04BEF53E063E091
:102DA00074E0CE010E94CB27813009F001C163E1BC
:102DB00072E0F40187A590A90E94F50E62E373E02A
:102DC000D4019F968D919C91D0970E942D0EB101B8
:102DD000F40187A590A90E94F50E6EE273E0D4017C
:102DE0009F968D919C91D0970E942D0EB301F40176
:102DF00087A590A90E94F50E6AE273E0D4019F9620
:102E00008D919C91D0970E942D0EB201F40187A55F
:102E100090A90E94F50E68E273E0D4019F968D910F
:102E20009C91D0970E942D0E60E172E0F40187A57D
:102E300090A90E94F50ED4019F968D919C91D097F8
:102E4000DC01ED91FC910680F781E02D099560E0B1
:102E500070E0CB010E94D70F0BEF13E023E034E0CA
:102E600040E65AEE60E070E0CE010E94CD03813072
:102E700009F09EC061E273E0CE010E94541D23E080
:102E800034E040E65AEE60E070E0CE010E94CD03EF
:102E9000813009F08DC067E173E0CE010E94541DBE
:102EA00023E034E040E157E260E070E0CE010E94B0
:102EB000CD03813009F07CC06AEF72E0CE010E9440
:102EC000541D00E010E020E030E04BEF53E063E001
:102ED00074E0CE010E94CB27813009F069C055CE45
:102EE000F40165A476A46114710409F444C063E19B
:102EF00072E0D4019F968D919C91D0970E94F50E1F
:102F000060EE72E0F40187A590A90E942D0EB30136
:102F1000D4019F968D919C91D0970E94F50E6EEDF5
:102F200072E0F40187A590A90E942D0E60E172E085
:102F3000D4019F968D919C91D0970E94F50EF4013B
:102F400087A590A9DC01ED91FC910680F781E02D29
:102F5000099560E070E0CB010E94D70F00E010E01F
:102F600020E030E04BEF53E063E074E0CE010E94DC
:102F7000CB278130E9F40E9411102B013C010E9403
:102F80001110DC01CB0184199509A609B70988390C
:102F90009A43A105B10560F4CE010E94780A81111F
:102FA000EFCD6AEF70E080E090E00E94D70FE7CFAE
:102FB00080E0DF91CF911F910F91FF90EF90DF9014
:102FC000CF90BF90AF909F908F907F906F905F90C9
:102FD0004F903F902F9008950C940837EF92FF92F6
:102FE0001F93CF93DF93EC0169A17AA1611571055D
:102FF00001F1EBA0FCA0E114F104D9F0898D9A8DC8
:10300000DC01ED91FC910280F381E02DA70109958F
:1030100011E08E159F0509F010E089A19AA10E9488
:1030200008371AA219A21CA21BA21EA21DA2812F40
:1030300001C081E0DF91CF911F91FF90EF90089543
:103040000C940837DF92EF92FF920F931F93CF9368
:10305000DF93EC017B018A01D22E452B09F454C089
:103060004DA15EA18BA19CA1800F911F481759070C
:10307000D8F561E070E098012F713327232B11F40C
:1030800060E070E0C80125E0969587952A95E1F704
:10309000860F971F35E0880F991F3A95E1F7BC011D
:1030A000640F751F7EA36DA389A19AA10E94A0370A
:1030B000009719F09AA389A317C0CE010E94EE17BA
:1030C000282F882371F1898D9A8DDC01ED91FC9177
:1030D0000280F381E02DA801B701099521E0801756
:1030E0009107F9F020E01DC029A13AA18BA19CA174
:1030F000A801B701820F931F0E946F388BA19CA17A
:10310000080F191F1CA30BA3DD2051F0CE01DF9186
:10311000CF911F910F91FF90EF90DF900C94EE17DD
:1031200021E0822FDF91CF911F910F91FF90EF90BF
:10313000DF9008952F923F924F925F926F927F920D
:103140008F929F92AF92BF92CF92DF92EF92FF92B7
:103150000F931F93CF93DF9300D000D0CDB7DEB78E
:103160009A8389834B016A010E9411102B013C0153
:103170001C821B824B815C814C155D0508F04DC0A3
:1031800086012B813C81021B130BE981FA81218C82
:10319000328C5901A80CB91CE12CF12CE016F10677
:1031A00031F0C1010E941D1097FF0BC087012B81D8
:1031B0003C81200F311F3C832B8310161106D4F263
:1031C00007C0F50181935F01FFEFEF1AFF0AE6CF19
:1031D0000E941110641575058605970571F00E940F
:1031E0001110DC01CB0184199509A609B7098031BA
:1031F0009742A105B105A8F4BDCF0E941110A3010B
:103200009201261B370B480B590BDA01C90180319B
:103210009742A105B10528F4ADCF81E04C155D05BD
:1032200009F080E00F900F900F900F90DF91CF91F9
:103230001F910F91FF90EF90DF90CF90BF90AF90D4
:103240009F908F907F906F905F904F903F902F90C6
:103250000895CF92DF92EF92FF920F931F93CF9337
:10326000DF93EC017B01FB01C080D180C114D1044C
:10327000A1F008E010E020E030E040E050E060E045
:1032800070E00E94A420860120E030E040E050E0A1
:1032900060E070E0CE010E94A420F701C280D380DC
:1032A000C114D104A9F000E110E020E030E040E0DA
:1032B00050E060E070E0CE010E94A420860120E092
:1032C00030E040E050E060E070E0CE010E94A420D9
:1032D000F70184819581892BD9F00EE110E020E07F
:1032E00030E040E050E060E070E0CE010E94A420B9
:1032F000F70184819581892B29F40E94B526F70175
:1033000095838483F70164817581CE010E946A21CF
:10331000F70186819781892B99F006E210E020E081
:1033200030E040E050E060E070E0CE010E94A42078
:10333000C70106960E94A213BC01CE010E946A2119
:10334000F70180859185892BD1F006E310E020E01C
:1033500030E040E050E060E070E0CE010E94A42048
:10336000C7010E947B20BC01CE01DF91CF911F914C
:103370000F91FF90EF90DF90CF900C946A21DF9136
:10338000CF911F910F91FF90EF90DF90CF90089514
:103390000895AF92BF92CF92DF92EF92FF920F9378
:1033A0001F93CF93DF9300D000D0CDB7DEB77C0161
:1033B0005B011C821B8282E891E09A838983CE01A3
:1033C00001960E942919670182E0C80ED11C01E014
:1033D00010E020E030E040E050E060E070E0C60146
:1033E0000E94A4202B813C81890120E030E040E054
:1033F00050E060E070E0C6010E94A420B501C60163
:103400000E942919D701ED91FC910680F781E02DEA
:1034100021E040E050E060E070E0C70109950F90C6
:103420000F900F900F90DF91CF911F910F91FF9010
:10343000EF90DF90CF90BF90AF9008950C94083735
:103440008F929F92AF92BF92CF92DF92EF92FF92B4
:10345000DC011296ED91FC9113973197EF30F10555
:1034600038F5ED5BFF4F0C942A3661E070E022C026
:10347000ED91FC9160817181828193810E9425355B
:1034800019C08D919C910E94B213622F732F12C0AC
:103490008D919C910E94B213490166277727681984
:1034A000790908C087E090E013969C938E93129759
:1034B00060E070E0CB01FF90EF90DF90CF90BF9085
:1034C000AF909F908F9008952F923F924F925F926E
:1034D0006F927F928F929F92AF92BF92CF92DF9224
:1034E000EF92FF920F931F93CF93DF936C01222EE5
:1034F000C32FD42FF52EE62EB72EE0E0F02FFF7766
:103500009801422D5C2F6D2F7F2D8E2D9B2D07E076
:103510000E944B36322E432E542E652E762E872E49
:10352000982EA92E022F132F242EE301F72EE82E1A
:10353000B92E9801452D5C2F6D2F782D892D9A2D50
:10354000A0E00E94673609F0F068D6018D919C9149
:103550008E0F911DDC01FC93EF5F232D342D452D43
:10356000562D672D782D892D9A2DA0E00E94673663
:1035700029F6DF91CF911F910F91FF90EF90DF908F
:10358000CF90BF90AF909F908F907F906F905F9003
:103590004F903F902F900895FC0120813181283079
:1035A000310531F02F30310529F02530310539F45E
:1035B00081E0089526E030E0FC013183208380E043
:1035C0000895FC01228133812F30310569F4209167
:1035D0000404211103C026E030E002C025E030E001
:1035E000FC0133832283089502960E94CC1A209115
:1035F000020430910304882349F0E091E402F09141
:10360000E502648181E08093040403C01092040405
:1036100060E0C9010C94FC12CF93DF93FC01208180
:103620003181232B89F4EC01E0910201F091030137
:103630000190F081E02D82E091E009959C01998351
:10364000888381E0232B09F480E0DF91CF910895F6
:103650007F928F929F92AF92BF92CF92DF92EF9222
:10366000FF920F931F93CF93DF936C01FB01309771
:1036700019F487E090E04CC06130710519F488E0DE
:1036800090E046C0AB0177FF04C044275527461B96
:10369000570BD42F152FC52FCC0FCC0B942EA52E46
:1036A000BC2E0C2FEC2EFC2E7C2E8C2EB1E0292D66
:1036B0003A2D4B2D502FB701872D982D07E00E94F2
:1036C0004B36922EA32EB42E052F7B01782E892EF9
:1036D000A0E00E94673611F0BF5FE9CF7F016B2F3A
:1036E00070E0C6010E940C1B8823A9F00D2F2C2F1F
:1036F0003C2F4C2F5C2F6C2F7C2FC6010E94641A2C
:103700001E141F041CF082E090E002C081E090E0F3
:10371000F60193838283DF91CF911F910F91FF90E8
:10372000EF90DF90CF90BF90AF909F908F907F9061
:103730000895FC01228133812F30310541F4E0915D
:10374000E402F091E502648175810C94281B0E94CB
:10375000201ABC018091E4029091E5020C94F00AD9
:10376000FC01228133812F30310541F4E091DE02EA
:10377000F091DF02648175810C94281B0E94201A4D
:10378000BC018091DE029091DF020C94F00AFC01F2
:10379000228133812F30310541F4E091E002F09134
:1037A000E102648175810C94281B0E94201ABC01DF
:1037B0008091E0029091E1020C94F00A0F931F9324
:1037C000CF93DF93EC01E091E202F091E3021181EB
:1037D000111103C087E090E02CC0113019F488E08B
:1037E00090E027C0212FE1E030E040E050E060E0D1
:1037F00070E080E090E007E00E944B36A0E00E947D
:10380000673619F0EF5F21E0EFCF6E2F70E0CE0149
:103810000E940C1B882379F0012F10E020E030E09B
:1038200040E050E060E070E0CE010E94641A81E068
:1038300090E09B838A83DF91CF911F910F91089530
:103840000F931F93CF93DF9300D0CDB7DEB78C01DA
:1038500069837A830E946929FC0169817A81892BB5
:10386000E9F0D8018D919C911197892B19F4ED9372
:10387000FC930CC0D80112968D919C911397DC019A
:103880001596FC93EE93149797838683D80113962D
:10389000FC93EE931297CF010E941024C8010F9061
:1038A0000F90DF91CF911F910F910895CF92DF92EA
:1038B000EF92FF920F931F93CF93DF938C016B01D5
:1038C000DC011296ED90FC901397E701209771F0C0
:1038D00068817981C6010E948338892B19F4CE0151
:1038E00004963AC00A80DB81C02DF0CF8AE190E0D7
:1038F0000E947336FC01D182C082138212829C0125
:103900002C5F3F4F1582148217821682138612860F
:103910001486158616861786108A118A128A138ACB
:103920008EE691E0958B848B178A168A118E108E05
:10393000EF2819F4E801FB83EA83E801AC81BD813B
:10394000109721F01396FC93EE931297D8011596D9
:10395000FC93EE931497C901DF91CF911F910F91C2
:10396000FF90EF90DF90CF9008950895AF92BF92AF
:10397000CF92DF92FF920F931F93CF93DF931F920B
:10398000CDB7DEB75C016B01F22E63E172E0DC01C2
:103990008D919C9149830E94F50EB601F5018081BD
:1039A00091810E942D0E498150E060E070E02AE094
:1039B000D5018D919C910E94660E6F2DF50180813D
:1039C00091810E94260EA80160E070E02AE0D501F6
:1039D0008D919C910E94660E60E172E0F5018081FC
:1039E00091810E94F50ED5018D919C91DC01ED91A4
:1039F000FC910680F781E02D099560E070E0CB0135
:103A00000F90DF91CF911F910F91FF90DF90CF909A
:103A1000BF90AF900C94D70FCF92DF92EF92FF92AE
:103A20000F931F93CF93DF931F92CDB7DEB76C0137
:103A30007B018A0163E172E0DC018D919C91298315
:103A40000E94F50EB701F601808191810E942D0E32
:103A5000B801D6018D919C910E94F50E2981622FAB
:103A6000F601808191810E94260E60E172E0D6010C
:103A70008D919C910E94F50EF60180819181DC016F
:103A8000ED91FC910680F781E02D099560E070E0F2
:103A9000CB010F90DF91CF911F910F91FF90EF908D
:103AA000DF90CF900C94D70F0F931F93CF93DF939A
:103AB000EC018B0163E172E0888199810E94F50E2F
:103AC000B801888199810E942D0E60E172E08881A1
:103AD00099810E94F50E88819981DC01ED91FC911C
:103AE0000680F781E02D099560E070E0CB01DF9161
:103AF000CF911F910F910C94D70F2F923F924F921D
:103B00005F926F927F928F929F92AF92BF92CF926D
:103B1000DF92EF92FF920F931F93CF93DF93CDB776
:103B2000DEB760970FB6F894DEBF0FBECDBF5C0165
:103B300083E194E00E942D0B8C0160E872E0C501E6
:103B40000E94FF23B8010E94281B80E194E00E949C
:103B50002D0B8C016AE872E0C5010E94FF23B801B9
:103B60000E94281B80910A040E941D12BC01990F1B
:103B7000880B990B0E94D93220E030EC4FE754E4D7
:103B80000E94B33420E030E040E751E40E94383333
:103B90006B017C0164E972E0C5010E94FF231C01F6
:103BA000C701B6010E9425352B013C010E94D93284
:103BB0009B01AC01C701B6010E94D232811170C0D5
:103BC000411451046104710441F487E090E0D10193
:103BD00013969C938E93129778C0B1E04B165104C4
:103BE0006104710419F488E090E056C0D301C20169
:103BF00077FE07C088279927DC0184199509A60953
:103C0000B7098D879E87AF87B88B6C017D01FF0C4C
:103C1000CC08DC2C7601982E092F1A2FFC2DEC2DC8
:103C2000CC868C2C81E08B87292D302F412F5B2F68
:103C30006F2F7E2F8C85982D07E00E944B36922E99
:103C4000032F142FB52FF62FE72F8C87892EA0E096
:103C50000E94673621F0AB85AF5FAB87E5CFBB85B0
:103C60006B2F70E0C1010E940C1B882371F10D8540
:103C70001E852F8538894C2D5C2D6C2D7C2DC10126
:103C80000E94641A14141504160417041CF082E030
:103C900090E002C081E090E0F1019383828315C03F
:103CA00083E090E0D10113969C938E93129764E089
:103CB00070E0C1010E940C1B882339F0D101ED9105
:103CC000FC91C082D182E282F3828090DA029090ED
:103CD000DB0266EF73E0C4010E94541D00E010E0B7
:103CE00020E030E04BEF53E06EEE73E0C4010E9441
:103CF000CB278130E9F4F401608171814CE2CE017F
:103D000001960E94E611CE0101960E9497106B0168
:103D10007C01CE0101960E946E1120E030E04BEF55
:103D200053E063E074E0C4010E94CB27860102C027
:103D300003E610E06CE972E0C5010E94FF23B801C0
:103D40000E94281B8E010F5F1F4F4E01FBE08F0E5C
:103D5000911C7801809107040E941D12D7018D9358
:103D60009D937D016AE070E080E090E00E94D70FB3
:103D7000E814F90479F7C12CD12C7601F80161918E
:103D800071918F01072E000C880B990B0E94D9327C
:103D90009B01AC01C701B6010E9447346B017C0155
:103DA0000815190559F720E030E040EA50E40E9478
:103DB000B3349B01AC0160E070EC8FE794E40E94A7
:103DC000B33420E030E040E85FE30E94463420E076
:103DD00030E04AE754E40E94383320E030E04AE71C
:103DE00054E40E94B3340E9463356B017C0163EAA2
:103DF00072E0C5010E94FF238C0123E333E145E912
:103E000053E4C701B6010E94383320E030EE48E5A4
:103E100055E40E9447349B01AC0168E475E98CE7E6
:103E200099E40E94B33423E333E948E853E40E9461
:103E300046340E942535C8010E94281B60960FB6A3
:103E4000F894DEBF0FBECDBFDF91CF911F910F91D0
:103E5000FF90EF90DF90CF90BF90AF909F908F90AA
:103E60007F906F905F904F903F902F900895EF92CA
:103E7000FF920F931F93CF93DF931F92CDB7DEB7BF
:103E80007C018B0163E172E0DC018D919C9149839F
:103E90000E94F50EB801F701808191810E942D0EDC
:103EA000498150E060E070E02AE0D7018D919C915B
:103EB0000E94660E60E172E0F701808191810E94AC
:103EC000F50ED7018D919C91DC01ED91FC9106805E
:103ED000F781E02D099560E070E0CB010F90DF9154
:103EE000CF911F910F91FF90EF900C94D70F1F92DD
:103EF0000F920FB60F9211242F935F936F937F93BE
:103F00008F939F93AF93BF9321E02093E60280911C
:103F100031039091320301969093320380933103E1
:103F200080913103909132036CE370E00E94E035A0
:103F3000892B11F420930101BF91AF919F918F9133
:103F40007F916F915F912F910F900FBE0F901F90F7
:103F50001895CF93C0E0FB01EC0FF11D2081CF5FDE
:103F600027FDF9CFDC01ED91FC914C2F50E0019041
:103F7000F081E02D09958C2FCF910895FC012281CD
:103F80003381420F531F5383428381E00895FC0124
:103F900022813381420F531F5383428381E008956E
:103FA000EF92FF920F931F93CF93DF938C017B01CE
:103FB000DC01CD91DC91209769F08881998100978F
:103FC00029F0B7010E948338892BA9F10E80DF8187
:103FD000C02DF1CF0E944C29EC01892B79F1F80119
:103FE00080819181892B19F4D183C08307C002801D
:103FF000F381E02DD783C683F987E887F801D3835F
:10400000C283F70101900020E9F78F010E191F0903
:10401000E0910201F09103010190F081E02DB801DF
:1040200082E091E0099599838883009721F0A801A7
:10403000B7010E946F38CE01029613C080913703FA
:1040400081110DC010923403109233038FE090E081
:10405000909336038093350381E08093370383E3A5
:1040600093E0DF91CF911F910F91FF90EF90089512
:10407000EF92FF920F931F93CF93DF93FC01EB011D
:10408000808191818230910529F40481158168EA4B
:1040900072E007C08330910579F4048115816BEAE1
:1040A00072E0CE010E94D01FF801DF91CF911F91E5
:1040B0000F91FF90EF9009940497B1F4048115815A
:1040C0006BEA72E0CE010E94D01F7C0168EA72E0C8
:1040D000CE010E94D01FB701F801DF91CF911F914F
:1040E0000F91FF90EF900994DF91CF911F910F9165
:1040F000FF90EF900895CF93DF93EC018885998529
:10410000892B31F40E94B5269987888781E08A87B8
:1041100088859985DF91CF910895CF93DF93EC0146
:104120008C819D810E949E268E819F810E949E2669
:104130008A85882331F088859985DF91CF910C9409
:104140009E26DF91CF9108952F923F924F925F92DA
:104150006F927F928F929F92AF92BF92CF92DF9297
:10416000EF92FF920F931F93CF93DF9300D01F9294
:10417000CDB7DEB75C01F22EE32ED42EC52E962EDF
:10418000872EE02FEF7798014F2D5E2D6D2D7C2D22
:10419000892D982D07E00E944B3619012A013B0119
:1041A0008A839B838901F42EE52CD62EC72C982E6A
:1041B000892E442D552D662D772DA0E00E9467365F
:1041C00009F0E068E983D501ED91FC910190F0815F
:1041D000E02D41E050E0BE016F5F7F4FC5010995C2
:1041E0009101A201B3018A819B81A0E00E94673600
:1041F00041F60F900F900F90DF91CF911F910F918B
:10420000FF90EF90DF90CF90BF90AF909F908F90F6
:104210007F906F905F904F903F902F900895CF9236
:10422000DF92EF92FF920F931F93CF93DF9361156D
:10423000710529F1EB016C01FB0101900020E9F708
:1042400031977F01E61AF70A870120E030E040E06D
:1042500050E060E070E00E94A420D601ED91FC9156
:104260000190F081E02DA701BE01C601DF91CF9141
:104270001F910F91FF90EF90DF90CF900994DF9105
:10428000CF911F910F91FF90EF90DF90CF90089505
:10429000EF92FF920F931F93CF93DF937C01FB016B
:1042A000C081D181209779F0FE01619171918F01D8
:1042B000C7010E940F21B801C7010E946A210E8028
:1042C000DF81C02DEFCFDF91CF911F910F91FF9034
:1042D000EF900895CF92DF92EF92FF920F931F938A
:1042E000CF93DF9300D000D000D0CDB7DEB77C01F4
:1042F0006B01DB0112964D915C911397FA01319796
:10430000EE30F10508F0D4C0EE5AFF4F0C942A3677
:10431000FB01C080D1800AE410E020E030E040E002
:1043200050E060E070E00E94A420B601C7010E9446
:104330000F21CFC00AE510E020E030E040E050E07F
:1043400060E070E00E94A420D701ED91FC91008113
:104350001181F601C080D180C6010E94B213B6015E
:10436000C7012D833E830E94A91FB601680F711DEE
:104370002D81422F3E81532FC701F8012FC09A0192
:1043800040E050E060E070E080E090E003E00E94F8
:10439000303689019A01AB01BC01C7010E94A420FB
:1043A000D6016D917C91C7010E94A91F92C0FB01AB
:1043B000C080D1800DE110E020E030E040E050E02E
:1043C00060E070E00E94A420D701ED91FC91019083
:1043D000F081E02D44E050E0B601C701099579C0B5
:1043E000FB01C080D18001E210E020E030E040E03D
:1043F00050E060E070E00E94A420D701ED91FC91B4
:104400000190F081E02D48E050E0E6CFFB01C08054
:10441000D1800AE610E020E030E040E050E060E0CB
:1044200070E00E94A42088E891E09A8389831C822E
:104430001B82B601CE0101960E9448212B813C814E
:10444000890120E030E040E050E060E070E0C7012A
:104450000E94A420B601C7010E9448213AC0DB0196
:10446000CD90DC9002E710E020E030E040E050E04A
:1044700060E070E00E94A42088E891E09A8389833C
:104480001C821B82B601CE0101960E9478222B81EC
:104490003C81890120E030E040E050E060E070E0E5
:1044A000C7010E94A420B601C7010E94782211C052
:1044B0009A0140E050E060E070E080E090E003E0CE
:1044C0000E94303689019A01AB01BC01C7010E94EC
:1044D000A42026960FB6F894DEBF0FBECDBFDF91A5
:1044E000CF911F910F91FF90EF90DF90CF900895A3
:1044F0000F931F93CF93DF938C01FB01C081D18178
:10450000209741F0BE01C8010E946A210C80DD8124
:10451000C02DF6CFDF91CF911F910F910895CF93CA
:10452000DF93EC018A819B810E9769F00E94382904
:1045300099838883892B19F48FE090E002C08EE084
:1045400090E09B838A83288139812115310521F0F0
:104550008A819B810E9781F080914F0381110EC05B
:1045600010924C0310924B0310924E0310924D0385
:1045700081E080934F0302C0C90102C08BE493E045
:10458000DF91CF910895CF93DF93EC018A819B81D6
:104590000D9769F00E94242999838883892B19F447
:1045A0008FE090E002C08DE090E09B838A832881B9
:1045B00039812115310521F08A819B810D9781F088
:1045C0008091430381110EC01092400310923F036B
:1045D000109242031092410381E08093430302C092
:1045E000C90102C08FE393E0DF91CF9108953F921C
:1045F0004F925F926F927F928F929F92AF92BF92F3
:10460000CF92DF92EF92FF920F931F93CF93DF939E
:104610005C016B01FC0180819181892B09F4BFC091
:10462000E280F38060EA72E0C6010E94D01F4C0174
:10463000E114F10419F487E090E04EC0F1E0EF16C8
:10464000F10419F488E090E047C0A701F7FE04C028
:10465000442755274E195F09D42F152FC52FCC0F8E
:10466000CC0B542E652E7C2E0C2FBC2FFC2F3C2EF9
:104670004C2EE1E0252D362D472D502F6B2F7F2F0F
:10468000832D942D07E00E944B36522E632E742EFC
:10469000052FB62FF72F382E492EA0E00E9467363F
:1046A00011F0EF5FE7CF6E2F70E0C4010E940C1B8A
:1046B0008823A9F00D2F2C2F3C2F4C2F5C2F6C2F13
:1046C0007C2FC4010E94641A1E141F041CF082E097
:1046D00090E002C081E090E0F40193838283F501D1
:1046E000E080F1806FEA72E0C6010E94D01F4C01A9
:1046F000E114F10419F487E090E04EC0F1E0EF1608
:10470000F10419F488E090E047C0A701F7FE04C067
:10471000442755274E195F09D42F152FC52FCC0FCD
:10472000CC0B542E652E7C2E0C2FBC2FFC2F3C2E38
:104730004C2EE1E0252D362D472D502F6B2F7F2F4E
:10474000832D942D07E00E944B36522E632E742E3B
:10475000052FB62FF72F382E492EA0E00E9467367E
:1047600011F0EF5FE7CF6E2F70E0C4010E940C1BC9
:104770008823A9F00D2F2C2F3C2F4C2F5C2F6C2F52
:104780007C2FC4010E94641A1E141F041CF082E0D6
:1047900090E002C081E090E0F40193838283F50110
:1047A000C289D3892097C9F062EB72E0C6010E94EA
:1047B000D01F0E94C3228C0168817981C8010E94A8
:1047C000D01F0E94C322BC01CE0104960E94F72292
:1047D0000A80DB81C02D209779F7DF91CF911F915F
:1047E0000F91FF90EF90DF90CF90BF90AF909F9090
:1047F0008F907F906F905F904F903F900895CF93F0
:10480000DF9300D0CDB7DEB769837A830E94C322DD
:1048100069817A810F900F90DF91CF910C94D01F16
:10482000EF92FF920F931F93CF93DF93FB010190C1
:104830000020E9F73197E61BF70B31F42AE030E06E
:10484000FC013383228315C07B018C01EF0121968B
:10485000BE010E940C1B882361F0AE01B701F80174
:10486000808191810E946F3889E090E0F801938304
:104870008283DF91CF911F910F91FF90EF90089568
:10488000CF93DF931F92CDB7DEB7E0911E04F09176
:104890001F040190F081E02D41E050E0BE016F5F08
:1048A0007F4F8EE194E009959981913810F0811144
:1048B000ECCF0F90DF91CF910895EF92FF920F937D
:1048C0001F93CF93DF931F92CDB7DEB77C0100E03B
:1048D00010E081E00E151F05A1F0882391F0E09112
:1048E0001E04F0911F040190F081E02D41E050E0A2
:1048F000BE016F5F7F4F8EE194E009950F5F1F4F00
:10490000E9CF0F90DF91CF911F910F91FF90EF9022
:1049100008952F923F924F925F926F927F928F9263
:104920009F92AF92BF92CF92DF92EF92FF920F933E
:104930001F93CF93DF93CDB7DEB72E970FB6F894C2
:10494000DEBF0FBECDBF7C0119821A821B821C8282
:10495000CE0101960E94A329D82E882309F4D3C141
:1049600089809A80AB80BC80C4018770992723E03E
:10497000B694A794979487942A95D1F7D701139664
:104980009C928E921297029709F02FC11B861C866B
:104990001D861E86CE010B960E94A329D82E882341
:1049A00009F4B1C1BBE08B169104A104B10499F1E3
:1049B00038F4F9E08F169104A104B10481F0A3C189
:1049C0002DE082169104A104B10409F458C03EE020
:1049D00083169104A104B10409F4C2C094C18B856B
:1049E0009C85AD85BE858F3FEFEF9E07AE07BE0766
:1049F00009F489C1BC016F5F7F4FC7010E940C1B86
:104A0000882309F480C16B857C85D7018D919C91A9
:104A10000E94832937C12B843C844D845E844201EB
:104A20003101A12CB12C6501E1E09301A401B50194
:104A3000C60107E00E944B3639014A015B016C0157
:104A4000A0E00E94673611F0EF5FEFCF8E2F90E06D
:104A5000A0E0B0E080959095A095B0958215930563
:104A6000A405B50508F44FC1CE2ED12CB601620DB8
:104A7000731DC7010E940C1B811106C144C1F701BF
:104A800080819181892B09F03EC10E9424295C011B
:104A9000D7018D939C93892B09F435C16B847C8459
:104AA0008090200490902104809120049091210412
:104AB000F301E81BF90BCF01880D991D892B09F42F
:104AC00023C10E944C297C01892B09F41CC1F501EA
:104AD00080819181892B19F4F182E0820AC00280E1
:104AE000F381E02DF782E682D7011996FC93EE93CD
:104AF0001897F501F382E282CE0101960E94A32964
:104B0000882309F400C189819A81AB81BC818F3FE0
:104B1000FFEF9F07AF07BF0709F4F5C0E09102015F
:104B2000F0910301BC016F5F7F4F0190F081E02D98
:104B300082E091E00995D7018D939C93009709F449
:104B4000E2C069817A810E948329882309F4DBC04D
:104B5000C70102960E948924882309F4D4C0A4CFF7
:104B6000D7018D919C91892B09F0CDC00E943829E5
:104B70005C01F70191838083892B09F4C4C08B8485
:104B80009C84E0902004F090210480912004909176
:104B900021049401281B390BC9018E0D9F1D892BFF
:104BA00009F4B2C00E946929009709F4ACC0D5018C
:104BB0002D913C911197232B19F48D939C930CC04C
:104BC000D5011296ED91FC91139795838483DC01B6
:104BD0001796FC93EE931697F501938382830E94B8
:104BE0008924882309F48FC0D0CF30E18316910443
:104BF00008F089C0F401E05AFF4F0C942A361B8656
:104C0000CE0101966C0110E0E0911E04F0911F04AA
:104C10000190F081E02D41E050E0BE01655F7F4FE3
:104C20008EE194E00995811151C06DC064E070E09F
:104C3000C7010E940C1B882309F465C0E0911E0483
:104C4000F0911F04D7016D917C910190F081E02DCE
:104C500044E050E014C068E070E0C7010E940C1B03
:104C6000882309F450C0E0911E04F0911F04D7017D
:104C70006D917C910190F081E02D48E050E08EE153
:104C800094E00995D82E40C0E0911E04F0911F04D5
:104C90004B855C85D7016D917C916C0D7D1D0190DC
:104CA000F081E02D8EE194E00995D82E882359F10A
:104CB0004B855C856D857E858A019B0140E050E0D7
:104CC00060E070E0C7010E94641A1EC08B85F60187
:104CD00081936F011F5F87FF03C01A30A1F094CF4B
:104CE000A12EB12CB501C7010E940C1BD82E882320
:104CF00059F0A501BE016F5F7F4FD7018D919C9147
:104D00000E946F3801C0D12C8D2D2E960FB6F894CD
:104D1000DEBF0FBECDBFDF91CF911F910F91FF90EE
:104D2000EF90DF90CF90BF90AF909F908F907F904B
:104D30006F905F904F903F902F900895CF93DF93A7
:104D4000009781F0EC010E945503E0910201F0917F
:104D500003010280F381E02DBE0182E091E0DF914A
:104D6000CF910994DF91CF910895E0910201F091E4
:104D700003010190F081E02D64E070E082E091E0B9
:104D80000995009739F0FC01118210822FE030E084
:104D90003383228308959F92AF92BF92CF92DF9286
:104DA000EF92FF920F931F93CF93DF93CDB7DEB7B0
:104DB0002C970FB6F894DEBF0FBECDBF8C011986BD
:104DC0001A861B861C86CE0109960E94A329982E5E
:104DD000882309F4CDC089859A85AB85BC8581304F
:104DE0009105A105B10559F00297A105B10509F09A
:104DF000BEC081E0809328040E944024B8C01D8278
:104E00001E821F821886CE0105960E94A329982E25
:104E1000882309F4ADC0CD80DE80E0902004F090BE
:104E20002104580126E0A20EB11C8091200490912B
:104E300021049601281B390BC9018E0D9F1D892B5A
:104E400009F496C019821A821B821C82CE01019637
:104E50000E94A329882309F48AC049815A816B8161
:104E60007C81CA018770992723E0769567955795CD
:104E700047952A95D1F78230910579F03CF4009757
:104E8000D1F0019791F688E090E06DC085309105F2
:104E900009F467C00697E9F1C8CF19821A821B820C
:104EA0001C82CE0101960E94A329882309F45FC0C9
:104EB00089819A8158C04130510561057105B1F071
:104EC000423051056105710509F519821A821B826C
:104ED0001C82CE0101960E94A329882309F447C0B1
:104EE00089819A81F801938382839FCF19821A82E4
:104EF0001B821C82CE0101960E94A3298823B9F14E
:104F000089819A81F801918380838FCF0E94402408
:104F10002CC04430510561057105C9F0463051057A
:104F200061057105C1F0433051056105710509F056
:104F30007CCFF80184819581892B29F40E94B526C4
:104F4000F80195838483F8018481958107C0C501A8
:104F50000E94A21303C0C8010E947B200E948924E2
:104F600004C084E090E00E945D2481115ECF912C0A
:104F7000892D2C960FB6F894DEBF0FBECDBFDF9102
:104F8000CF911F910F91FF90EF90DF90CF90BF9046
:104F9000AF909F900895AF92BF92CF92DF92EF9221
:104FA000FF920F931F93A12CB12C680179018A0104
:104FB0009B0148EE53E060E070E00E94CD031F913A
:104FC0000F91FF90EF90DF90CF90BF90AF9008953A
:104FD0004F925F926F927F92AF92BF92CF92DF9289
:104FE000EF92FF920F931F93CF93DF93EC010E94F8
:104FF00011102B013C010E941110DC01CB0184191E
:105000009509A609B70980319742A105B10538F580
:1050100068E074E0CE010E94541DA12CB12CC12C7B
:10502000D12CE12CF12C0BEF13E023E034E048EC21
:1050300050E060E070E0CE010E94CD03813041F489
:1050400064E670E080E090E00E94D70F81E008C045
:1050500064E670E080E090E00E94D70FCCCF80E063
:10506000DF91CF911F910F91FF90EF90DF90CF9044
:10507000BF90AF907F906F905F904F9008950F9387
:105080001F93CF93DF93CDB7DEB72B970FB6F8946E
:10509000DEBF0FBECDBF8C011E821D8218861F820F
:1050A0001A8619861B86FC01868197819A838983DB
:1050B0007C836B83CE0101960E947B200E94C322D9
:1050C000BC01C8010E943820BE016F5F7F4F86E19E
:1050D00094E00E94C919CE0101960E948D202B9662
:1050E0000FB6F894DEBF0FBECDBFDF91CF911F91F9
:1050F0000F9108950F931F93CF93DF93CDB7DEB732
:105100002B970FB6F894DEBF0FBECDBF65E372E0FC
:1051100089E294E00E94561C8C011A8219821E8238
:105120001D8218861F821A8619861B868AE090E0E7
:105130009C838B830E94B5269E838D8364EB72E0F3
:105140000E941024CE0101960E947B20D8012D914F
:105150003C9111972330310529F41496ED91FC917F
:1051600015970995BE016F5F7F4F86E194E00E941D
:10517000C919182FCE0101960E948D20812F2B96E0
:105180000FB6F894DEBF0FBECDBFDF91CF911F9158
:105190000F9108958230C8F4E82FF0E0EE0FFF1F62
:1051A000EC5FFE4F71836083813041F08091690034
:1051B0008C7F826080936900E89A089580916900ED
:1051C000837F886080936900E99A089580910F0435
:1051D00081110FC080910E04882311F060E001C09E
:1051E00061E080910D040E944F0F81E080930F04D5
:1051F000089580E0089541E050E063ED72E00C9482
:10520000E910CF93DF93EC0188819981DC01ED9166
:10521000FC910084F185E02D0995892B31F460E043
:1052200070E0CB010E94D70FEFCF88819981DC011C
:10523000ED91FC910284F385E02D09958C9721F77F
:1052400081E0DF91CF910895E0910201F091030197
:105250000190F081E02D64E070E082E091E009953A
:10526000009729F0FC0111821082138212820895A6
:10527000E0910201F09103010190F081E02D64E0E2
:1052800070E082E091E00995009729F0FC0111821D
:105290001082138212820895E0910201F0910301BD
:1052A0000190F081E02D6AE070E082E091E00995E4
:1052B000FC01892B61F011821082138212828FE02F
:1052C00090E0958384831782168211861086CF0121
:1052D0000895E0910201F09103010190F081E02D29
:1052E00068E070E082E091E00995009759F0FC01D8
:1052F000118210822FE030E03383228315821482E2
:105300001782168208950F931F93CF93DF93009710
:1053100081F0EB018C01E0911E04F0911F040190DB
:10532000F081E02DAB01BC018EE194E00995811183
:1053300002C080E003C0C00FD11F1882DF91CF915F
:105340001F910F9108958F929F92AF92BF92EF920B
:10535000FF920F931F93CF93DF931F92CDB7DEB7CA
:105360007C01FC01108211821282138200E010E0A5
:10537000E0911E04F0911F040190F081E02D41E0C6
:1053800050E0BE016F5F7F4F8EE194E00995882366
:1053900021F10332110501F19981492F4F7750E036
:1053A00060E070E0002E04C0440F551F661F771F99
:1053B0000A94D2F7F70180809180A280B3804829B7
:1053C00059296A297B294083518362837383095F4A
:1053D0001F4F97FDCDCF01C080E00F90DF91CF919F
:1053E0001F910F91FF90EF90BF90AF909F908F9083
:1053F0000895CF93DF93CDB7DEB76E970FB6F894CD
:10540000DEBF0FBECDBF789484B5826084BD84B505
:10541000816084BD85B5826085BD85B5816085BDAF
:1054200080916E00816080936E0010928100809167
:1054300081008260809381008091810081608093EF
:105440008100809180008160809380008091B10014
:1054500084608093B1008091B00081608093B0003F
:1054600080917A00846080937A0080917A008260D3
:1054700080937A0080917A00816080937A00809195
:105480007A00806880937A001092C100E0916703EF
:10549000F091680382E08083E0916303F0916403FC
:1054A0001082E0916503F091660380E180831092A1
:1054B0006F03E0916B03F0916C0386E08083E091D1
:1054C0006903F0916A03808180618083E0916903C0
:1054D000F0916A03808188608083E0916903F09194
:1054E0006A03808180688083E0916903F0916A0398
:1054F00080818F7D80836AE070E080E090E00E9490
:10550000D70F1092C7041092C6041092C5041092CF
:10551000C4041092C3041092C2048DEC90E09093E6
:10552000C9048093C8049091B804963108F057C01C
:1055300025E530E03093C3042093C2042BEC30E027
:105540003093C5042093C40420E930E03093C704AD
:105550002093C60420916800983050F031E09E30CE
:1055600008F430E081E001C0880F3A95EAF701C005
:1055700084E0822B80936800983038F09E3040F0B1
:10558000963148F020E030E008C02DE630E005C05C
:105590002BE630E002C02CE630E03093C0042093CC
:1055A000BF04983030F481E001C0880F9A95EAF783
:1055B0000EC0292F30E09E3018F42850310902C067
:1055C0002E50310981E001C0880F2A95EAF78093B7
:1055D000C1048091C8049091C9040197F1F78091AA
:1055E000C6049091C704892B49F1E091D802F0914B
:1055F000D90224E0EC3AF20709F1309739F0A38997
:10560000B4899C918589809589238C938091CA0463
:105610008E7F8093CA041092D7021092D6028CEA31
:1056200094E09093D9028093D802E091BF04F09166
:10563000C00490818091C104892B808368EB7BE05A
:1056400080E090E00E94D70F6DE672E087E593E07E
:105650000E942D0E60E172E087E593E00E94510EFA
:1056600085E494E09093DB028093DA020E94E827BD
:10567000811122C061E089E00E949B0F60E089E017
:105680000E944F0F68EE73E080E090E00E94D70F19
:1056900061E089E00E944F0F60ED77E080E090E0EC
:1056A0000E94D70F60E089E00E944F0F68EB7BE01B
:1056B00080E090E00E94D70F8FEF93E00E94F933D3
:1056C0008D3041F06DE08FEF93E00E940134FF24B4
:1056D000F39401C0F12C82E090E00E9473368C01BB
:1056E000DC0111961C92FF20C9F060E083E690E097
:1056F0000E940134F801108254E6C52ED12CDA82C2
:10570000C9826FEFCE0101960E94560BF5E0CF0ED5
:10571000D11C26E9C216D10491F706C083E690E0B9
:105720000E94F933D8018C931093E3020093E202B4
:105730008BE090E00E9473366C01EF2C04E610E0E1
:1057400020E030E04AE050E060E070E00E94020BB0
:10575000D092DF02C092DE028BE090E00E947336AE
:105760006C0120E030E04EE150E062E070E00E9429
:10577000020BD092E102C092E0028BE090E00E9426
:1057800073366C0120E030E049E150E064E070E005
:105790000E94020BD092E502C092E40280E191E007
:1057A00090933E0480933D048FE091E090934004F9
:1057B00080933F048EE091E09093420480934104F3
:1057C00066E272E089E294E00E94561C02E010E07A
:1057D000FC011183008320ED34E1358324836CE2E6
:1057E00072E089E294E00E94561C23E0E22EF12C44
:1057F000DC011196FC92EE922DE73DE115963C936B
:105800002E93149765E372E089E294E00E94561C9F
:10581000FC01F182E0822EED3BE1358324836BE3D2
:1058200072E089E294E00E94561CDC0111961C9300
:105830000E9327EC3BE115963C932E93149767E467
:1058400072E089E294E00E94561CFC0111830083FF
:1058500020EB3BE13583248362E572E089E294E04A
:105860000E94561CDC0111961C930E9329E93BE122
:1058700015963C932E93149761E672E089E294E0CA
:105880000E94561CFC011183008321EE3AE135830E
:105890002483F89410928000109281001092850069
:1058A0001092840088E09DE39093890080938800A3
:1058B0008091810088608093810080918100856063
:1058C0008093810080916F00826080936F00789454
:1058D00063E672E087E593E00E942D0E60E172E0DE
:1058E00087E593E00E94510E32E0432E512C45E0B3
:1058F000242E312C80912F0490913004DC01ED9105
:10590000FC910688F789E02D099581114CC1E09141
:105910001604F09117040484F585E02D86E194E0E7
:105920000995882391F080912F0490913004DC0137
:10593000ED91FC910488F589E02D099586E194E0CC
:105940000E94101481110EC06DC0E0911604F091F8
:1059500017040284F385E02D86E194E00995811116
:10596000E2CF60C00091350410913604E09033041A
:10597000F0903404C0903104D090320481E08093E0
:1059800028041D861C86198A188A1B8A1A8A1D8A71
:105990001C8A1E8A3F862E86CE0142960E94A21342
:1059A0000E948F22B6010E94201CB7010E94201C79
:1059B000B8010E94201CBE01645F7F4F86E194E025
:1059C0000E94C919182F8823E1F01A8219821C82BB
:1059D0001B821E821D8218861F821A8619861B86CC
:1059E000CE0101960E94CB26182F882331F011E0BA
:1059F0008B819C81019709F010E0CE0101960E94F5
:105A00008D20CE010C960E948D201111CCC080916A
:105A10002F0490913004DC01ED91FC910488F5890C
:105A2000E02D099568E873E180E090E00E94D70FCF
:105A30008091E6028823A1F01092E602E091E40250
:105A4000F091E5028285882359F0648180910404F5
:105A5000882331F080910204909103040E94FC128B
:105A600080910101882309F49BC01092010180916B
:105A70000001882399F01092000181E089831A8245
:105A80001B821C821D82BE016F5F7F4F8091E202EC
:105A90009091E3020E94C60B0E947A288091E00256
:105AA0009091E1020E94760B8091DE029091DF02DC
:105AB0000E94760B8091E4029091E5020E94760BA1
:105AC00083E194E00E942D0B7C0183E194E00E942D
:105AD0002D0B8C0180E194E00E942D0B8E159F050B
