:100000000C9425020C9436120C940F120C945D1271
:100010000C945D120C945D120C944D020C944D02E4
:100020000C944D020C944D020C944D020C94521FF2
:100030000C944D020C944D020C944D020C944D0204
:100040000C9428100C944D020C94F80E0C94D20EC3
:100050000C944D020C944D020C944D020C944D02E4
:100060000C944D020C944D028F2F9B2F862F862FC0
:10007000812FBA2FBA2F812FBA2FBA2FBA2FBA2FAA
:10008000BA2FBA2FB32F1C1A231A131A131A101AC5
:10009000331A331A101A331A331A331A331A331A1B
:1000A000331A2D1A1E2299219921B021C5211E2211
:1000B0001E221E221E221D221E221D221E221D2243
:1000C0001D221E227A267A269226AB261327132774
:1000D000132713274326132755261327C126EA265D
:1000E00008000000BE922449123EABAAAA2ABECD47
:1000F000CCCC4C3E00000080BEABAAAAAA3E0000B9
:100100000000BF000000803F0000000000084178B0
:10011000D3BB4387D1133D190E3CC3BD4282AD2BE7
:100120003E68EC8276BED98FE1A93E4C80EFFFBEDF
:1001300001C4FF7F3F0000000000434C4F534520A7
:100140004F4B0D0A004552524F520D0A00414C527E
:100150004541445920434F4E4E4543540D0A0043F8
:100160004F4E4E454354204641494C0D0A00434FE3
:100170004E4E454354204F4B0D0A00222C00222C9A
:10018000220022544350002B4349505354415254AF
:100190003D002B434950434C4F53453D000D0A440D
:1001A000415441204143434550543A003E002B43C3
:1001B000495053454E443D002B4349505258474502
:1001C000543A002B43495052584745543D322C0075
:1001D0002C22494E495449414C22002C22434C4F79
:1001E00053494E4722002C22434C4F534544220092
:1001F0002C22434F4E4E454354454422002B434945
:10020000505354415455533D002B43495052584785
:1002100045543A002B43495052584745543D342CDD
:10022000000D0A2B435245473A002B435245473FA6
:10023000002B43494653523B4530000D0A2B4347A0
:100240004154543A002B43474154543F00434C4FD0
:100250005345440D0A000D0A2B4349505258474557
:10026000543A00494E495420444F4E4500494E49A6
:10027000542E2E0000000000240027002A00000059
:100280000008000201000003040700000000000055
:1002900000004E4F5420494E53455254454400539C
:1002A000494D2050554B0053494D2050494E005266
:1002B00045414459000D0A2B4350494E3A002B4307
:1002C00050494E3F0045300026465A002B434655C4
:1002D0004E3D312C31002B4346554E3D300022001F
:1002E0002B4350494E3D22002B43474154543D304F
:1002F000002B43495053485554002B43444E53431D
:1003000046473D22382E382E382E38222C22382EC1
:10031000382E342E3422002B43494653523B45306D
:10032000002B4349494352002200222C2200222C58
:1003300022002B435354543D22002B434950525822
:100340004745543D31002B4349505153454E443DA0
:1003500031002B4349504D55583D31002B43474107
:1003600054543D31002B53415042523D322C310008
:100370002B53415042523D312C31002B43474143D6
:10038000543D312C31002B434744434F4E543D31B3
:100390002C224950222C22002B53415042523D33F3
:1003A0002C312C22505744222C22002B53415042F6
:1003B000523D332C312C2255534552222C22002BF6
:1003C00053415042523D332C312C2241504E222C6D
:1003D00022002B53415042523D332C312C22436F8B
:1003E0006E74797065222C224750525322000D0AF8
:1003F0002B4353513A002B435351004552524F5215
:100400000D0A004F4B0D0A000000000000250028D7
:10041000002B000000000023002600290004040433
:10042000040404040402020202020203030303039D
:10043000030102040810204080010204081020017A
:100440000204081020004B302B3011241FBECFEFC8
:10045000D8E0DEBFCDBF24E0A2EEB2E001C01D9225
:10046000A93EB207E1F712E0A0E0B1E0EEE9F1E762
:1004700002C005900D92A23EB107D9F712E0C4E286
:10048000D2E004C02197FE010E943F36C332D1075B
:10049000C9F70E940B2A0C94C2380C940000DC01AE
:1004A000ED91FC910688F789E02D099591E0811185
:1004B00001C090E0892F0895CF93DF93EC01E8818C
:1004C000F9810084F185E02D0995892B11F48D893E
:1004D00001C081E0DF91CF910895DC011C96ED9180
:1004E000FC911D9780819181DC01ED91FC9106804A
:1004F000F781E02D09948FEF9FEF0895CF93DF935D
:100500001F92CDB7DEB7DC01ED91FC910288F38933
:10051000E02D41E050E0BE016F5F7F4F09950197EC
:1005200019F4898190E002C08FEF9FEF0F90DF9167
:10053000CF910895CF93DF931F92CDB7DEB7698334
:10054000DC01ED91FC910280F381E02D41E050E06F
:10055000BE016F5F7F4F09950F90DF91CF91089596
:10056000089580E090E00895CB010C941D370C9421
:100570001D370C941D370C941D370C941D370C94AB
:100580001D370C941D37CB010C9488360F931F93A5
:10059000CF93DF93EC0160E070E0CB010E94B20FDB
:1005A0004E8562E971E08C859D850E94121F1D8A2F
:1005B00000E010E020E030E04BEF53E063E074E057
:1005C0008C859D850E946523FE01E75AFF4F1182AD
:1005D0001082C95ADF4F19821882DF91CF911F9183
:1005E0000F910895EF92FF920F931F93CF93DF9394
:1005F000CDB7DEB728970FB6F894DEBF0FBECDBFDC
:100600007C018B0162E172E0CE0101964F83588735
:100610000E94861160E170E0CE0101960E949D105B
:10062000D80112966C91CE0101960E94F210CE0173
:1006300001960E946329F8016381CE0101960E9410
:10064000F210CE0101960E946329D80114966C9194
:10065000CE0101960E94F210CE0101960E946329FC
:10066000F8016581CE0101960E94F210D701ED914B
:10067000FC9169817A810088F189E02D4F8158854C
:10068000C70109958C01CE0101960E944911C8014C
:1006900028960FB6F894DEBF0FBECDBFDF91CF9185
:1006A0001F910F91FF90EF900895CF92DF92EF92FC
:1006B000FF920F931F93CF93DF93DC0112962D913E
:1006C0003C911397CD91DC912D30310561F5209748
:1006D00009F45AC00A811B81E0910201F0910301E3
:1006E0000115110509F441C0D8011896CD90DC9090
:1006F00019976D917D917D010280F381E02D82E05B
:1007000091E00995C7010E945503E0910201F09123
:1007100003010280F381E02DB80182E091E00995A8
:10072000DB82CA82D7CF2E303105D9F4209761F110
:100730000A811B8101151105A1F0F801E680F780FF
:10074000C8010E945503E0910201F091030102806B
:10075000F381E02DB80182E091E00995FB82EA8205
:10076000E7CFE0910201F09103010280F381E02DD7
:10077000BE0182E091E0DF91CF911F910F91FF9038
:10078000EF90DF90CF900994DF91CF911F910F915F
:10079000FF90EF90DF90CF9008952F923F924F926D
:1007A0005F926F927F928F929F92AF92BF92CF9201
:1007B000DF92EF92FF920F931F93CF93DF93CDB70A
:1007C000DEB7A0970FB6F894DEBF0FBECDBF1C01F9
:1007D0002A013B013C8B2B8B1E8B0D8BF88EEF8AF5
:1007E000DA8EC98EBC8EAB8E62E172E0CE010D96C0
:1007F0000E94861160E470E0CE010D960E949D106B
:100800000E94EC0F4B015C0160E070E0CB010E94A4
:10081000B20FD1018D919C91DC01ED91FC9100848E
:10082000F185E02D0995181619060CF0C3C1D10108
:100830008D919C91DC01ED91FC910284F385E02D7A
:100840000995181619062CF789831A8241E050E0A1
:10085000BE016F5F7F4FCE010D960E94C410EB89E1
:10086000FC89EF2B29F48D899E89892BE1F416C030
:100870006B897C89CE0101960E944E11BE016F5F8B
:100880007F4FCE010D960E947D10182FCE0101964C
:100890000E944911112339F311E0E2C1AF89B88DEB
:1008A000AB2BE1F416C06D897E89CE0101960E94C2
:1008B0004E11BE016F5F7F4FCE010D960E947D10DD
:1008C000182FCE0101960E944911112339F312E02D
:1008D000C7C1E98DFA8DEF2BE1F416C06F89788DD1
:1008E000CE0101960E944E11BE016F5F7F4FCE0177
:1008F0000D960E947D10182FCE0101960E9449117D
:10090000112339F313E0ACC18B8D9C8D892B61F5DC
:1009100016C0698D7A8DCE0101960E944E11BE01DE
:100920006F5F7F4FCE010D960E947D10182FCE0174
:1009300001960E944911112339F314E091C166E533
:1009400072E0CE0101960E944E11BE016F5F7F4F93
:10095000CE010D960E947D10182FCE0101960E94A7
:100960004911111117C060C06B8D7C8DCE010196AD
:100970000E944E11BE016F5F7F4FCE010D960E9407
:100980007D10182FCE0101960E9449111123B9F252
:1009900015E066C1D1016D917C914CE2CE010796C4
:1009A0000E94C111CE0107960E947210613071053C
:1009B0008105910561F5F101608171814AE0CE0107
:1009C00001960E94C111CE0101960E9472106B0126
:1009D0007C01CE0101960E944911F5E0CF16D104A9
:1009E00078F48FEFC81AD80ACC0CDD1CF101EC0D9D
:1009F000FD1D0190F081E02D309711F091E0968B74
:100A000062E172E0CE010D960E941D1108C04B8577
:100A10005C856F817885CE010D960E94C410CE0151
:100A200007960E944911F5CE6DE472E0CE01019661
:100A30000E944E11BE016F5F7F4FCE010D960E9446
:100A40007D10182FCE0101960E944911112309F43F
:100A5000E0CE09891A890850110960E172E0CE01DF
:100A600001960E9486112D813E812115310591F15B
:100A700089899A89009771F18217930758F10817AD
:100A8000190718F08C0101501109ED84FE84498189
:100A90005A81C701CC24CA94DD24DA949701200F2F
:100AA000311F28173907C8F0BA012F8F38A34D8F8F
:100AB0005E8F0E94A8382F8D38A14D8D5E8D0097D6
:100AC00061F0BC016E197F090617170708F06B016A
:100AD0000196E7CF0FEF1FEF01C08601CE0101960F
:100AE0000E9449117801A2E0EA0EF11C89899A89D5
:100AF000E816F90678F4CD84DE846CE270E0C60175
:100B00008E0D9F1D0E948D38009721F08C010C19CD
:100B10001D0902C00FEF1FEF0E151F0528F49E2DB3
:100B20008F2D7801092F182F62E172E0CE01019616
:100B30000E94861189899A89E816F906C0F48017FF
:100B4000910708F48C01ED85FE85E00FF11FD08040
:100B500010826D857E856E0D7F1DCE0101960E94EF
:100B60001D118D859E85FC01E00FF11FD082CE0105
:100B700001960E9472106B017C01CE0101960E94C9
:100B80004911B5E0CB16D10470F4EFEFCE1ADE0AAE
:100B9000CC0CDD1CF101EC0DFD1D0190F081E02D70
:100BA000309709F0158A62E172E0CE010D960E943D
:100BB0001D112FCE0E94EC0FDC01CB018819990981
:100BC000AA09BB0984159505A605B70508F41CCE2E
:100BD000ED84FE84E114F104E1F109891A8901151B
:100BE0001105B9F157016501BFEFAB1ABB0AF60158
:100BF0008081082E000C990B0E94CE32892B99F728
:100C0000015011090E0D1F1DD8018C91082E000CEA
:100C1000990B0E94CE32892B79F4A8014F5F5F4F68
:100C20004C195D095A8B498BEC14FD0458F4B6013C
:100C3000C7010E94843806C00C151D0570F30150D1
:100C40001109E2CFED85FE8589899A89E80FF91FA0
:100C5000108262E172E0CE010D960E941D1110E03B
:100C6000CE010D960E944911812FA0960FB6F894DF
:100C7000DEBF0FBECDBFDF91CF911F910F91FF90CF
:100C8000EF90DF90CF90BF90AF909F908F907F902C
:100C90006F905F904F903F902F9008956F927F924A
:100CA0008F929F92AF92BF92CF92DF92EF92FF927C
:100CB0000F931F93CF93DF9300D000D000D0CDB718
:100CC000DEB74C016C01F12CD6011296AD90BC90B0
:100CD0001397A114B10409F46CC0F5018689882327
:100CE00009F467C0168A4F2D64E172E0C4010E94C6
:100CF000121F00E010E020E030E04BEF53E069E02D
:100D000072E0C4010E946523813051F1D601129630
:100D10006D907C9013974F2D6DEF71E0C4010E9490
:100D2000121F00ED11E02BED31E046EE51E060EFD7
:100D300071E0C4010E946523E82E00E010E020E08D
:100D400030E04BEF53E063E074E0C4010E946523A0
:100D500091E0E91290E0F301958B612C712C26C093
:100D6000C4010E946929C4010E946929D4016D91BE
:100D70007C914AE0CE0101960E94C111CE010196FC
:100D80000E9472103B01CE0101960E94491100E0C1
:100D900010E020E030E04BEF53E063E074E0C4018A
:100DA0000E9465236114710409F4B0CFF501708AC3
:100DB0006786F2E0CF0ED11CF39485E0F81284CF61
:100DC000D4018D919C91DC01ED91FC910084F18521
:100DD000E02D0995892B91F0A12CB12CC12CD12C9F
:100DE000E12CF12C00E010E020E030E04AE050E09F
:100DF00060E070E0C4010E94CD03E2CF26960FB6FA
:100E0000F894DEBF0FBECDBFDF91CF911F910F9140
:100E1000FF90EF90DF90CF90BF90AF909F908F901A
:100E20007F906F9008952F923F924F925F926F92B2
:100E30007F928F929F92AF92BF92CF92DF92EF926A
:100E4000FF920F931F93CF93DF93CDB7DEB72E970B
:100E50000FB6F894DEBF0FBECDBF7C011B015C87CF
:100E60004B8760E070E0CB010E94B20FD7011C9667
:100E70008D919C911D970E944E06412C512CF7019B
:100E8000E95AFF4FFA87E987C701875A9F4F98872A
:100E90008F83D7015796BE87AD87EB85FC854E16AD
:100EA0005F0608F01CC1D70155968C91882309F480
:100EB00016C1E985FA8500811181AF81B8858D91D0
:100EC0009C91081B190B17FF02C0005C1F4F8B85FC
:100ED0009C85841995098017910708F48C010115E8
:100EE000110509F441C048013101EF81F885A08066
:100EF000B180A985BA858D919C918A199B0997FF2C
:100F000002C0805C9F4F009729F4200E311E400ED6
:100F1000511EC3CF20E430E02A193B09582D492D3A
:100F20002815390514F4522F432FC52ED42E8C15B5
:100F30009D050CF46C016D857E856A0D7B1DA601F7
:100F4000C3010E948438AC0CBD1CBFE3AB22BB24A0
:100F5000EF81F885B182A0828C189D086C0C7D1CF5
:100F60008114910491F2C1CFD7011C968D919C916F
:100F70001D970E944E06F70187859089892B09F4F9
:100F8000AEC09684AF81B8850D911C91E985FA8534
:100F900080819181081B190B1016110614F0005C5A
:100FA0001F4FD7011C96CD90DC901D970150110961
:100FB0002CE2492D63EC71E0C6010E94911C00E017
:100FC00010E020E030E04BEF53E068EB71E0C60149
:100FD0000E946523813009F060CFC6010E94692913
:100FE000C6010E946929F601608171814CE2CE013F
:100FF00001960E94C111CE0101960E9472103B0120
:10100000CE0101960E9449115601A90CB11CA90CF0
:10101000B11CD50112960D911C911397F6016081B8
:1010200071814AE0CE0101960E94C111CE01019664
:101030000E947210D80150967C936E931F97CE0138
:1010400001960E94491100E010E006151705D8F539
:10105000F60180819181DC01ED91FC910084F185A4
:10106000E02D0995892B31F460E070E0CB010E94FE
:10107000B20FEECFF60180819181DC01ED91FC9100
:101080000284F385E02D0995F501428153814A01DF
:10109000F7E58F0E911CF401A081B1819D012F5FB6
:1010A0003F4F2F73332732966081718126173707A0
:1010B00039F0A40FB51F57968C93D4012D933C9310
:1010C0000F5F1F4FC2CF00E010E020E030E04BEF99
:1010D00053E063E074E0C6010E946523DECEC201E6
:1010E0002E960FB6F894DEBF0FBECDBFDF91CF9125
:1010F0001F910F91FF90EF90DF90CF90BF90AF9036
:101100009F908F907F906F905F904F903F902F9027
:1011100008958F929F92AF92BF92EF92FF920F939A
:101120001F93CF93DF93EC0160E070E0CB010E944E
:10113000B20F8E01095A1F4F7E0129E5E20EF11C04
:10114000F80120813181F70180819181281B390BC1
:1011500037FF3FC0203CFFEF3F0751F58D898823C3
:10116000E9F00E94EC0F89889A88AB88BC88DC0182
:10117000CB0188199909AA09BB09853F9140A105AE
:10118000B10540F081E08E8B0E94EC0F698B7A8B69
:101190008B8B9C8B8C859D850E944E06F80120814F
:1011A0003181F70180819181281B390B37FF02C003
:1011B000205C3F4F8F859889820F931FDF91CF91DD
:1011C0001F910F91FF90EF90BF90AF909F908F90E5
:1011D00008952115310511F2EDCF8F929F92AF92B4
:1011E000BF92CF92DF92EF92FF920F931F93CF9314
:1011F000DF9300D000D000D0CDB7DEB76C014B013B
:101200005A0160E070E0CB010E94B20FD6011C963B
:101210008D919C911D970E944E06F601E484F58401
:1012200085012CE246856EEA71E0C7010E94911C9F
:1012300000E010E020E030E04BEF53E06CEA71E0BA
:10124000C7010E946523813019F000E010E037C02B
:10125000D7018D919C91DC01ED91FC910280F3818D
:10126000E02DA501B4010995F70180819181DC0190
:10127000ED91FC910680F781E02D099500E010E0EA
:1012800020E030E04BEF53E06DE971E0C7010E94D0
:1012900065238130D1F6C7010E946929F701608179
:1012A00071814AE0CE0101960E94C111CE010196E2
:1012B0000E9472108B01CE0101960E944911C80153
:1012C00026960FB6F894DEBF0FBECDBFDF91CF914B
:1012D0001F910F91FF90EF90DF90CF90BF90AF9054
:1012E0009F908F9008958F929F92AF92BF92CF92CE
:1012F000DF92EF92FF920F931F93CF93DF934C01F6
:101300007B018A01DC01ED91FC910488F589E02DD7
:10131000099560E070E0CB010E94B20FF401E75A3A
:10132000FF4F11821082329711821082F401D6840D
:10133000C485D58563E172E0888199810E94D00ED1
:1013400067E871E0888199810E94080E4D2D50E078
:1013500060E070E02AE0888199810E94410E6CE291
:10136000888199810E94010E62E871E088819981EB
:101370000E94080E6EE771E0888199810E94080E34
:10138000B701888199810E94D00E6BE771E0888156
:1013900099810E94080EA80160E070E02AE088812F
:1013A00099810E94410E60E172E0888199810E94DA
:1013B000D00E88819981DC01ED91FC910680F78146
:1013C000E02D099560E070E0CB010E94B20F8AE346
:1013D000A82E81E0B82E95E4C92E91E0D92E2DE4F7
:1013E000E22E21E0F22E0FE511E02EE631E048EF8B
:1013F00054E261E070E0CE010E94CD0391E08130C3
:1014000009F090E0F401958B892F90E0DF91CF9166
:101410001F910F91FF90EF90DF90CF90BF90AF9012
:101420009F908F9008958F929F92AF92BF92EF926C
:10143000FF920F931F93CF93DF9300D000D000D083
:10144000CDB7DEB77C0165E472E00E942F1D00E09D
:1014500010E020E030E04BEF53E06BE372E0C701B7
:101460000E946523813089F5F701608171814AE02E
:10147000CE0101960E94C111CE0101960E94721008
:101480004B015C01CE0101960E94491100E010E081
:1014900020E030E04BEF53E063E074E0C7010E94CE
:1014A00065238A94892889F461E372E0C7010E9468
:1014B0002F1D20E030E04BEF53E063E074E0C70104
:1014C0000E94652391E0813009F090E0892F2696F3
:1014D0000FB6F894DEBF0FBECDBFDF91CF911F9145
:1014E0000F91FF90EF90BF90AF909F908F900895D5
:1014F000AF92BF92CF92DF92EF92FF920F931F9322
:10150000CF93DF9300D000D000D0CDB7DEB75C0121
:101510006AE272E00E942F1D00E010E020E030E05F
:101520004BEF53E061E272E0C5010E946523813018
:1015300019F5C5010E946929F501608171814AE0B0
:10154000CE0101960E94C111CE0101960E94721037
:101550006B017C01CE0101960E94491120E030E030
:101560004BEF53E063E074E0C5010E9465239601F0
:101570002130310549F002C024E030E081E025301F
:10158000310519F080E001C081E026960FB6F8948D
:10159000DEBF0FBECDBFDF91CF911F910F91FF90A6
:1015A000EF90DF90CF90BF90AF9008950895089589
:1015B0001F93CF93DF93FC011481112359F0EC01A9
:1015C0008381882311F061E001C060E08A810E947C
:1015D0002A0F1C82812FDF91CF911F9108950895CA
:1015E000FC01808591858617970754F08681978145
:1015F000681779072CF081E08287758364830895EA
:1016000080E00895EF920F931F93CF93DF93FC0137
:1016100012867183608353834283378326831187C5
:101620000087EE2041F0BA01DF91CF911F910F9119
:10163000EF900C94F00A8B01EC01CB010E940E3468
:101640008C83C80101960E940E348D83DF91CF9167
:101650001F910F91EF9008950895FC0182810E94DF
:10166000F811BC01990F880B990B0E94EE3220E013
:1016700030E04CE853E40E945B3420E030EC49E376
:1016800054E40E94C83420E030E048EC52E40E9468
:101690004D339B01AC0160E070E088EC92E40E9465
:1016A0005B340E943A35CB0108950895EF92FF9282
:1016B0000F931F93CF93DF931F92CDB7DEB77C01BB
:1016C000FC0100811181C80169830E940E34698187
:1016D000681719F0C8010E941634C7010F90DF91F6
:1016E000CF911F910F91FF90EF9008950F931F934B
:1016F000CF93DF9300D0CDB7DEB7FC012285222344
:10170000C9F08C01128666E172E084E693E00E94E3
:10171000D00EF8016081718184E693E00E94172960
:10172000F8016481808191819A838983CE01019639
:101730000E94560B0F900F90DF91CF911F910F9148
:101740000895AF92BF92CF92DF92EF92FF920F93E4
:101750001F93CF93DF9300D0CDB7DEB78C016B0121
:10176000FC0180818F5F8A3010F4808302C0F80111
:101770001082F6018081F80181838081F5E08F9FDE
:10178000C0011124F60161915F018C599F4F0E94A5
:101790001634F801E080F5E0EF9E7001112425E693
:1017A000E20EF11C85E0C80ED11CF50161915F01CC
:1017B000FA82E982CE0101960E94560BFFEFEF1AE2
:1017C000FF0AAC14BD0489F7F801608183E690E05C
:1017D0000E9416340F900F90DF91CF911F910F91BF
:1017E000FF90EF90DF90CF90BF90AF900895089555
:1017F000CF92DF92EF92FF920F931F93CF93DF93DD
:101800006C017A018B01C0E0D0E0CE15DF0589F0D4
:10181000D8016D918D01D601ED91FC910190F0817F
:10182000E02DC6010995892B11F47E0102C0219695
:10183000ECCFC701DF91CF911F910F91FF90EF90F7
:10184000DF90CF9008953FB7F89480913A0390913C
:101850003B03A0913C03B0913D0326B5A89B05C076
:101860002F3F19F00196A11DB11D3FBFBA2FA92F1F
:10187000982F8827820F911DA11DB11DBC01CD019C
:1018800042E0660F771F881F991F4A95D1F7089588
:10189000FC01538D448D252F30E0842F90E0821B76
:1018A000930B541710F0CF96089501970895FC01FB
:1018B000918D828D981761F0828DDF01A80FB11D87
:1018C0005D968C91928D9F5F9F73928F90E00895AB
:1018D0008FEF9FEF0895FC01918D828D981731F065
:1018E000828DE80FF11D858D90E008958FEF9FEFB9
:1018F0000895FC01918D228D892F90E0805C9F4F8F
:10190000821B91098F739927089584E693E00E94C2
:10191000790C21E0892B09F420E0822F0895FC0145
:10192000848DDF01A80FB11DA35ABF4F2C91848D68
:1019300090E001968F739927848FA689B7892C939D
:10194000A089B1898C9180648C93938D848D981338
:1019500006C00288F389E02D80818F7D8083089501
:10196000EF92FF920F931F93CF93DF93EC0181E0EF
:10197000888F9B8D8C8D981305C0E889F9898081AB
:1019800085FD24C0F62E0B8D10E00F5F1F4F0F73E7
:101990001127E02E8C8DE8120CC00FB607FCFACF91
:1019A000E889F989808185FFF5CFCE010E948F0CEF
:1019B000F1CF8B8DFE01E80FF11DE35AFF4FF0824E
:1019C0000B8FEA89FB898081806207C0EE89FF89DD
:1019D0006083E889F98980818064808381E090E078
:1019E000DF91CF911F910F91FF90EF900895CF93CA
:1019F000DF93EC01888D8823C9F0EA89FB89808117
:101A000085FD05C0A889B9898C9186FD0FC00FB6E8
:101A100007FCF5CF808185FFF2CFA889B9898C9129
:101A200085FFEDCFCE010E948F0CE7CFDF91CF91E4
:101A3000089580E090E0892B29F00E94850C8111A7
:101A40000C940000089508952091E4023091E5027D
:101A50002817390771F49091E2028091E3029817F8
:101A600041F0E091E202F0E0EB50FD4F808190E028
:101A700008958FEF9FEF089508951F93CF93DF93FD
:101A8000DC015C962D913C915D972115310539F46F
:101A900081E090E013969C938E9312973DC05196EF
:101AA000ED91FC91529750969C915097892F80957B
:101AB0001FB75E964C915E9741FB772770F941FD09
:101AC0006095F8944081772311F0492B01C0482399
:101AD0004083E9012197F1F748E0508160FF02C09F
:101AE000592B01C058235083E9012197F1F76695DE
:101AF000415099F7772321F090818923808303C097
:101B00008081982B90831FBF5C968D919C915D97EF
:101B10000197F1F721E030E0C901DF91CF911F91EA
:101B200008952091E4023091E5022817390771F4F5
:101B30008091E3022091E20290E0805C9F4F821B43
:101B4000910960E470E00E940936089580E090E019
:101B500008952091E4023091E50228173907B9F47D
:101B60009091E2028091E302981789F0E091E202FD
:101B7000F0E0EB50FD4F80812091E20230E02F5FDA
:101B80003F4F2F7333272093E20290E008958FEFA9
:101B90009FEF0895E82FF0E0EE0FFF1FEF5FFB4F80
:101BA0000190F081E02D309729F080859185019694
:101BB00091878087089585E00C94CA0D84E00C9489
:101BC000CA0D83E00C94CA0D82E00C94CA0D81E02A
:101BD0000C94CA0D80E00C94CA0D0E947F38CF93FC
:101BE000DF93EC0188819981009711F00E941D37E5
:101BF000198218821D821C821B821A82DF91CF916A
:101C00000895DC01ED91FC910190F081E02D0994A3
:101C1000EF92FF920F931F93CF93DF938C017B0181
:101C2000C0E0D0E0F701EC0FFD1F6491662361F086
:101C3000D801ED91FC910190F081E02DC80109954A
:101C4000892B11F02196EECFCE01DF91CF911F911C
:101C50000F91FF90EF9008956115710579F0FB01E8
:101C600001900020E9F73197AF01461B570BDC01CB
:101C7000ED91FC910280F381E02D099480E090E0E9
:101C800008954F925F926F927F92EF92FF920F931F
:101C90001F93CF93DF93CDB7DEB7A1970FB6F8941C
:101CA000DEBF0FBECDBF7C01FA01CB0119A22230ED
:101CB00008F42AE08E010F5D1F4F422E512C612C3B
:101CC000712CBF01A30192010E941D36F901CA01C6
:101CD000015011096A3014F4605D01C0695CD801DB
:101CE0006C93232B242B252B61F7B801C7010E948D
:101CF0002C0EA1960FB6F894DEBF0FBECDBFDF91BC
:101D0000CF911F910F91FF90EF907F906F905F9018
:101D10004F9008958F929F92AF92BF92CF92DF9291
:101D2000EF92FF920F931F93CF93DF937C018B0170
:101D30006C0182E0C80ED11C4701E5E08E0E911CBB
:101D4000C0E0D0E0F60141916F0150E060E070E04A
:101D50002AE0C8010E94410E5C016EE2C8010E94A7
:101D6000010E8A0D9B1DC80FD91FC814D90451F745
:101D7000F701458150E060E070E02AE0C8010E9470
:101D8000410E8C0F9D1FDF91CF911F910F91FF90FE
:101D9000EF90DF90CF90BF90AF909F908F9008957D
:101DA0000C942C0E1F920F920FB60F9211242F93AA
:101DB0003F934F935F936F937F938F939F93AF93D3
:101DC000BF93EF93FF9384E693E00E948F0CFF9103
:101DD000EF91BF91AF919F918F917F916F915F91A3
:101DE0004F913F912F910F900FBE0F901F9018951C
:101DF0001F920F920FB60F9211242F938F939F93E0
:101E0000EF93FF93E0917403F09175038081E0916B
:101E10007A03F0917B0382FD12C0908180917D0353
:101E20008F5F8F7320917E03821751F0E0917D03C5
:101E3000F0E0EC59FC4F958F80937D0301C08081C9
:101E4000FF91EF919F918F912F910F900FBE0F9067
:101E50001F90189590E0FC01E258FD4F3491FC0171
:101E6000EF5CFB4F2491FC01E35EFB4FE491EE231A
:101E700009F43BC0332339F1333091F038F4313079
:101E8000A9F0323001F584B58F7D12C0373091F062
:101E90003830A1F03430B9F4809180008F7D03C0D8
:101EA000809180008F77809380000DC084B58F77FC
:101EB00084BD09C08091B0008F7703C08091B000CD
:101EC0008F7D8093B000F0E0EE0FFF1FE75FFB4FC8
:101ED000A591B4918FB7F894EC91611103C020954E
:101EE0002E2301C02E2B2C938FBF0895CF93DF9309
:101EF00090E0FC01EF5CFB4F2491FC01E35EFB4FA3
:101F00008491882361F190E0880F991FFC01EC58BF
:101F1000FD4FC591D491FC01E75FFB4FA591B491B2
:101F2000611109C09FB7F894888120958223888326
:101F3000EC912E230BC0623061F49FB7F894388186
:101F4000822F809583238883EC912E2B2C939FBF27
:101F500006C08FB7F894E8812E2B28838FBFDF91BE
:101F6000CF9108958F929F92AF92BF92CF92DF92BE
:101F7000EF92FF926B017C010E94230C4B015C01EC
:101F8000C114D104E104F104F1F00E94230CDC013E
:101F9000CB0188199909AA09BB09883E9340A1057C
:101FA000B10570F321E0C21AD108E108F10888EE0A
:101FB000880E83E0981EA11CB11CC114D104E10459
:101FC000F10419F7DDCFFF90EF90DF90CF90BF9035
:101FD000AF909F908F9008952FB7F894609136033B
:101FE0007091370380913803909139032FBF089582
:101FF0000F931F93CF93DF93EC010E94EC0F688740
:1020000079878A879B87E881F9810284F385E02DAF
:10201000CE01099597FF17C00E94EC0F088519851E
:102020002A853B85DC01CB01801B910BA20BB30BF6
:102030000C811D812E813F8180179107A207B30774
:1020400010F38FEF9FEFDF91CF911F910F910895C4
:102050001F920F920FB60F9211242F933F938F93DD
:102060009F93AF93BF938091360390913703A091D4
:102070003803B09139033091350323E0230F2D3716
:1020800020F40196A11DB11D05C026E8230F02967C
:10209000A11DB11D20933503809336039093370320
:1020A000A0933803B093390380913A0390913B0396
:1020B000A0913C03B0913D030196A11DB11D8093F9
:1020C0003A0390933B03A0933C03B0933D03BF912D
:1020D000AF919F918F913F912F910F900FBE0F90D5
:1020E0001F901895FC0180819181009711F00C944C
:1020F0005D3260E070E0CB010895FC012481358100
:10210000FB014481558124173507A0F0FC01808133
:102110009181009779F0FB016081718161157105F2
:1021200049F0241B350B820F931F0E94983821E041
:10213000892B09F020E0822F08950F931F93CF93EE
:10214000DF93EC0188819981009729F02A813B81F6
:102150002617370788F48B016F5F7F4F0E94B537D2
:10216000009761F0998388831B830A832C813D81CA
:10217000232B11F4FC01108281E001C080E0DF918B
:10218000CF911F910F910895EF92FF920F931F939C
:10219000CF93DF93FC01248135816115710511F422
:1021A00080E019C041155105A9F07B01EC018A01BD
:1021B000020F131FB8010E949D10882389F3288104
:1021C00039818C819D81B701820F931F0E94A138B4
:1021D0001D830C8381E0DF91CF911F910F91FF90C0
:1021E000EF900895EF92FF920F931F93CF93DF9399
:1021F00000D000D0CDB7DEB77C01862F4AE08E013B
:102200000F5F1F4FB80190E00E949432F8010190D7
:102210000020E9F73197AF01401B510BB801C7010E
:102220000E94C4100F900F900F900F90DF91CF91EC
:102230001F910F91FF90EF900895EF92FF920F93EF
:102240001F93CF93DF938C017B016115710569F0BA
:10225000FB0101900020E9F73197EF01C61BD70B76
:10226000BE010E949D10811104C0C8010E94EF0DA3
:1022700008C0F801D583C483B701808191810E9491
:10228000A138C801DF91CF911F910F91FF90EF907E
:102290000895FC01808191810C941D37EF92FF928B
:1022A0000F931F93CF93DF93EC01198218821B8247
:1022B0001A821D821C826115710509F18B01CB0107
:1022C0000E948B327C01BC01CE010E949D108111C5
:1022D00009C0CE01DF91CF911F910F91FF90EF9038
:1022E0000C94EF0DFD82EC82B80188819981DF9119
:1022F000CF911F910F91FF90EF900C948432DF915A
:10230000CF911F910F91FF90EF900895EF92FF9260
:102310000F931F93CF93DF93EC01198218821B82D6
:102320001A821D821C826115710521F18B01FB014E
:1023300001900020E9F731977F01E61AF70AB7010B
:102340000E949D10811109C0CE01DF91CF911F9194
:102350000F91FF90EF900C94EF0DFD82EC82B8018D
:1023600088819981DF91CF911F910F91FF90EF901C
:102370000C94A138DF91CF911F910F91FF90EF90B6
:102380000895CF92DF92EF92FF920F931F93CF9316
:10239000DF9300D0CDB7DEB78C016B01E42E62E194
:1023A00072E00E948611C6010E94F80F0E2C000CEC
:1023B000FF0897FD11C08E159F0571F089831A8261
:1023C00041E050E0BE016F5F7F4FC8010E94C41022
:1023D000C6010E94F80FEDCFC8010F900F90DF915A
:1023E000CF911F910F91FF90EF90DF90CF900895C4
:1023F0008E3008F08E508770806480937C008091CE
:102400007A00806480937A0080917A0086FDFCCF08
:10241000809178002091790090E0922B08951F928E
:102420000F920FB60F9211242F933F934F935F9308
:102430006F937F938F939F93AF93BF93EF93FF938C
:10244000E0910601F09107010995FF91EF91BF918D
:10245000AF919F918F917F916F915F914F913F913C
:102460002F910F900FBE0F901F9018951F920F92F3
:102470000FB60F9211242F933F934F935F936F9357
:102480007F938F939F93AF93BF93EF93FF93E091CD
:102490000401F09105010995FF91EF91BF91AF9172
:1024A0009F918F917F916F915F914F913F912F916C
:1024B0000F900FBE0F901F9018951F920F920FB69E
:1024C0000F9211242F933F934F935F936F937F93BA
:1024D0008F939F93AF93BF93EF93FF93E091E402A9
:1024E000F091E502309709F451C0968DA685B78525
:1024F000858591FF04C09C91892329F447C09C9154
:10250000892309F043C0A389B4899C91858980956A
:1025100089238C93868997890197F1F7608D718D56
:10252000A685B785558538E020E0CB010197F1F706
:10253000822F90E095958795282F4C91452309F09F
:102540002068315091F7868D81FD20958091E302BE
:1025500090E001968F7399273091E202381749F085
:10256000A091E302B0E0AB50BD4F2C938093E30207
:1025700003C0868D8160868F828D938D0197F1F7E0
:10258000A389B4899C918589892B8C93FF91EF91C4
:10259000BF91AF919F918F917F916F915F914F917B
:1025A0003F912F910F900FBE0F901F901895CF92D3
:1025B000DF92EF92FF920F931F93CF93DF93EC0183
:1025C000653608F064E66C8370E080E090E00E947D
:1025D000EE3223E333E343E250E40E944D330E94A2
:1025E0003A356B017C018B01CB8161E08C2F0E941D
:1025F000760FC114D10409F447C00F3F110509F447
:1026000045C0EC2FF0E0E258FD4FE491E330F9F0E3
:1026100048F4E130B9F0E230A1F584B5806284BDC0
:10262000C8BC40C0E730E9F0E83019F1E43049F5C2
:1026300080918000806280938000D0928B00C09255
:102640008A0030C084B5806884BDC7BC2BC080912F
:102650008000806880938000D0928900C0928800BA
:1026600021C08091B00080688093B000C092B30018
:1026700019C08091B00080628093B000C092B40015
:1026800011C00038110514F460E001C061E08C2F26
:10269000DF91CF911F910F91FF90EF90DF90CF903E
:1026A0000C942A0FDF91CF911F910F91FF90EF9023
:1026B000DF90CF9008950F931F93CF93DF93611511
:1026C0007105A1F08B01FC01C081D181209771F0CF
:1026D00068817981C8010E949838892B19F4CE014C
:1026E000049606C00A80DB81C02DF0CF80E090E028
:1026F000DF91CF911F910F910895CF93DF93EC015C
:1027000088819981892B21F40E944F2299838883A3
:1027100088819981DF91CF9108957F928F929F92C6
:10272000AF92BF92CF92DF92EF92FF920F931F93DF
:10273000CF93DF936C01892B91F1E12CF12C10E008
:10274000D0E0C0E0812C712CF0E0E0E0C6018E0DFD
:10275000911DDC019C90292D2F77B7E0EB9E500155
:10276000112430E040E050E060E070E080E090E074
:102770000A2D0E944536F22A132BD42BC52B862A0C
:10278000772AF82BE92BE39497FCE0CF2F2D312FFC
:102790004D2F5C2F682D772D8F2F9E2F08C020E0A6
:1027A00030E040E050E060E070E080E090E0DF91F9
:1027B000CF911F910F91FF90EF90DF90CF90BF903E
:1027C000AF909F908F907F90089580E00895089536
:1027D000089581E008950F931F93CF93DF93EC0149
:1027E000E98DFA8D0190F081E02D00891189E88151
:1027F000F9810088F189E02D0995811103C040E736
:1028000052E602C042E752E66DE772E0898D9A8D8A
:10281000F801099521E0892B09F420E0822FDF914E
:10282000CF911F910F91089581E0089581E008955F
:102830002091E8023091E90212161306FCF4DC0143
:102840005596ED91FC9156973097A1F0138612861C
:1028500084859585A685B785892B8A2B8B2B11F0CE
:102860002150310914861586168617860280F38159
:10287000E02DEACF3093E9022093E8020895CF9348
:10288000DF93EC01E881F9810288F389E02D67E0AC
:1028900070E00995898D9A8DDC01ED91FC91048899
:1028A000F589E02D0995E881F9810288F389E02D09
:1028B00066E070E0CE010995CE01DF91CF910C94D6
:1028C00018140F931F93CF93DF938C01EA01DC015F
:1028D00014968D919C911597DC01ED91FC910480EB
:1028E000F581E02D0995882339F0F80122813381A3
:1028F000C20FD31FD383C283DF91CF911F910F915A
:1029000008950F931F93CF93DF938C01EA01DC01AD
:1029100014968D919C911597DC01ED91FC910680A8
:10292000F781E02D20E00995882339F0F801228114
:102930003381C20FD31FD383C283DF91CF911F9105
:102940000F910895FC0122813381420F531F53835D
:10295000428381E00895FC01228133812F303105CB
:1029600069F420911C04211103C026E030E002C06C
:1029700025E030E0FC0133832283089502960E9413
:10298000A71A81110C944E2988E194E00C94D80A7E
:10299000CF93DF93EC01AF96CE010E94780A882393
:1029A00029F0CE01DF91CF910C94130A80E0DF91E2
:1029B000CF9108952F923F924F925F926F927F92A4
:1029C0008F929F92AF92BF92CF92DF92EF92FF923F
:1029D0000F931F93CF93DF93DC0197962D913C913A
:1029E0009897232B09F4BFC24C01EC01AF96CE019E
:1029F0000E94780A81119FC0CE010E948223882301
:102A000009F4B1C266ED72E0CE010E942F1DA12C27
:102A1000B12CC12CD12CE12CF12C0BEF13E023E0D5
:102A200034E040E157E260E070E0CE010E94CD0367
:102A3000813009F098C26CEC72E0CE010E942F1D2B
:102A400023E034E040E157E260E070E0CE010E9414
:102A5000CD03813009F087C268EB7BE080E090E035
:102A60000E94B20FCE010E948223882309F47BC208
:102A700068EC72E0CE010E942F1D00E010E020E023
:102A800030E04BEF53E063E074E0CE010E94652339
:102A900065EC72E0CE010E942F1D20E030E04BEF8C
:102AA00053E063E074E0CE010E946523813009F0B9
:102AB0005AC20E94EC0F2B013C010E94EC0FDC017A
:102AC000CB0184199509A609B70980319742A10560
:102AD000B10508F0E0C16EEB72E0CE010E942F1D3F
:102AE00000E010E020E030E04BEF53E065EB72E0F7
:102AF000CE010E946523813039F068EE73E080E0FA
:102B000090E00E94B20FD9CF02E912E02FE932E043
:102B100047EA52E06FEA72E0CE010E94652300E0CE
:102B200010E020E030E04BEF53E063E074E0CE01D2
:102B30000E946523B0C1CE010E94130A882311F0C0
:102B400081E012C2D4019B964D905C909C9799961F
:102B50006D907C909A9797962D903C90989761EF06
:102B600072E0CE010E942F1DA12CB12CC12CD12CC2
:102B7000E12CF12C0BEF13E023E034E040E65AEEB9
:102B800060E070E0CE010E94CD03813071F468EE08
:102B900072E0CE010E942F1D23E034E040E65AEEA1
:102BA00060E070E0CE010E94CD0362ED73E0CE01E3
:102BB0000E942F1D00E010E020E030E04BEF53E0DA
:102BC00063E074E0CE010E94652322E2A1016FEB75
:102BD00073E0CE010E94E71C20E030E04BEF53E0B1
:102BE00063E074E0CE010E94652361147104A1F0DA
:102BF000F3018081882381F022E2A3016BEA73E074
:102C0000CE010E94E71C20E030E04BEF53E063E090
:102C100074E0CE010E94652341145104B1F0D20149
:102C20008C91882391F022E2A20168E973E0CE0141
:102C30000E94E71C00E010E020E030E04BEF53E0A2
:102C400063E074E0CE010E94652322E2A10166E800
:102C500073E0CE010E94E71C00E010E020E030E0CD
:102C60004BEF53E063E074E0CE010E9465236BE715
:102C700073E0CE010E942F1DA12CB12CC12CD12CB0
:102C8000E12CF12C0BEF13E023E034E040E65AEEA8
:102C900060E070E0CE010E94CD0360E773E0CE01FA
:102CA0000E942F1D23E034E048E05CE461E070E026
:102CB000CE010E94CD0365E673E0CE010E942F1D78
:102CC00023E034E040E355E760E070E0CE010E948D
:102CD000CD03813009F047C16CE573E0CE010E945D
:102CE0002F1D23E034E040E65AEE60E070E0CE01B4
:102CF0000E94CD03813009F036C162E573E0CE0158
:102D00000E942F1D00E010E020E030E04BEF53E088
:102D100063E074E0CE010E946523813009F023C195
:102D200066E473E0CE010E942F1D20E030E04BEFFF
:102D300053E063E074E0CE010E946523813009F026
:102D400012C16AE373E0CE010E942F1D20E030E043
:102D50004BEF53E063E074E0CE010E9465238130C5
:102D600009F001C163E172E0F40187A590A90E9416
:102D7000D00E62E373E0D4019F968D919C91D09721
:102D80000E94080EB101F40187A590A90E94D00EFF
:102D90006EE273E0D4019F968D919C91D0970E9432
:102DA000080EB301F40187A590A90E94D00E6AE233
:102DB00073E0D4019F968D919C91D0970E94080E4C
:102DC000B201F40187A590A90E94D00E68E273E0D9
:102DD000D4019F968D919C91D0970E94080E60E13E
:102DE00072E0F40187A590A90E94D00ED4019F96AD
:102DF0008D919C91D097DC01ED91FC910680F7813B
:102E0000E02D099560E070E0CB010E94B20F0BEF5E
:102E100013E023E034E040E65AEE60E070E0CE01DB
:102E20000E94CD03813009F09EC061E273E0CE01C3
:102E30000E942F1D23E034E040E65AEE60E070E08F
:102E4000CE010E94CD03813009F08DC067E173E0AF
:102E5000CE010E942F1D23E034E040E157E260E004
:102E600070E0CE010E94CD03813009F07CC06AEF92
:102E700072E0CE010E942F1D00E010E020E030E063
:102E80004BEF53E063E074E0CE010E946523813094
:102E900009F069C055CEF40165A476A461147104EB
:102EA00009F444C063E172E0D4019F968D919C9136
:102EB000D0970E94D00E60EE72E0F40187A590A931
:102EC0000E94080EB301D4019F968D919C91D097DA
:102ED0000E94D00E6EED72E0F40187A590A90E94C9
:102EE000080E60E172E0D4019F968D919C91D0977D
:102EF0000E94D00EF40187A590A9DC01ED91FC9110
:102F00000680F781E02D099560E070E0CB010E941A
:102F1000B20F00E010E020E030E04BEF53E063E060
:102F200074E0CE010E9465238130E9F40E94EC0F29
:102F30002B013C010E94EC0FDC01CB0184199509A7
:102F4000A609B70988399A43A105B10560F4CE01F5
:102F50000E94780A8111EFCD6AEF70E080E090E086
:102F60000E94B20FE7CF80E0DF91CF911F910F91C8
:102F7000FF90EF90DF90CF90BF90AF909F908F9099
:102F80007F906F905F904F903F902F9008950C949A
:102F90001D37EF92FF921F93CF93DF93EC0169A14E
:102FA0007AA16115710501F1EBA0FCA0E114F10417
:102FB000D9F0898D9A8DDC01ED91FC910280F3812D
:102FC000E02DA701099511E08E159F0509F010E08D
:102FD00089A19AA10E941D371AA219A21CA21BA2A4
:102FE0001EA21DA2812F01C081E0DF91CF911F9110
:102FF000FF90EF9008950C941D37DF92EF92FF92AF
:103000000F931F93CF93DF93EC017B018A01D22EA4
:10301000452B09F454C04DA15EA18BA19CA1800F4A
:10302000911F48175907D8F561E070E098012F719A
:103030003327232B11F460E070E0C80125E096955A
:1030400087952A95E1F7860F971F35E0880F991F1E
:103050003A95E1F7BC01640F751F7EA36DA389A1AA
:103060009AA10E94B537009719F09AA389A317C0B7
:10307000CE010E94C917282F882371F1898D9A8D5E
:10308000DC01ED91FC910280F381E02DA801B701F4
:10309000099521E080179107F9F020E01DC029A1D2
:1030A0003AA18BA19CA1A801B701820F931F0E9496
:1030B00084388BA19CA1080F191F1CA30BA3DD2032
:1030C00051F0CE01DF91CF911F910F91FF90EF90C2
:1030D000DF900C94C91721E0822FDF91CF911F91CF
:1030E0000F91FF90EF90DF9008952F923F924F92B3
:1030F0005F926F927F928F929F92AF92BF92CF9288
:10310000DF92EF92FF920F931F93CF93DF9300D044
:1031100000D0CDB7DEB79A8389834B016A010E9444
:10312000EC0F2B013C011C821B824B815C814C15F6
:103130005D0508F04DC086012B813C81021B130BFD
:10314000E981FA81218C328C5901A80CB91CE12C3F
:10315000F12CE016F10631F0C1010E94F80F97FF43
:103160000BC087012B813C81200F311F3C832B83B7
:1031700010161106D4F207C0F50181935F01FFEF2D
:10318000EF1AFF0AE6CF0E94EC0F6415750586055D
:10319000970571F00E94EC0FDC01CB0184199509B1
:1031A000A609B70980319742A105B105A8F4BDCFA2
:1031B0000E94EC0FA3019201261B370B480B590B01
:1031C000DA01C90180319742A105B10528F4ADCFDC
:1031D00081E04C155D0509F080E00F900F900F9095
:1031E0000F90DF91CF911F910F91FF90EF90DF90A3
:1031F000CF90BF90AF909F908F907F906F905F9097
:103200004F903F902F900895CF92DF92EF92FF92D0
:103210000F931F93CF93DF93EC017B01FB01C080E1
:10322000D180C114D104A1F008E010E020E030E02A
:1032300040E050E060E070E00E945F25860120E001
:1032400030E040E050E060E070E0CE010E945F2599
:10325000F701C280D380C114D104A9F000E110E0CD
:1032600020E030E040E050E060E070E0CE010E94FD
:103270005F25860120E030E040E050E060E070E053
:10328000CE010E945F25F70184819581892BD9F0B9
:103290000EE110E020E030E040E050E060E070E05F
:1032A000CE010E945F25F70184819581892B29F445
:1032B0000E944F22F70195838483F7016481758111
:1032C000CE010E942526F70186819781892B99F0EE
:1032D00006E210E020E030E040E050E060E070E026
:1032E000CE010E945F25C70106960E947D13BC0196
:1032F000CE010E942526F70180859185892BD1F08A
:1033000006E310E020E030E040E050E060E070E0F4
:10331000CE010E945F25C7010E943625BC01CE0167
:10332000DF91CF911F910F91FF90EF90DF90CF90A1
:103330000C942526DF91CF911F910F91FF90EF9074
:10334000DF90CF9008950895AF92BF92CF92DF9211
:10335000EF92FF920F931F93CF93DF9300D000D093
:10336000CDB7DEB77C015B011C821B8282E891E055
:103370009A838983CE0101960E940419670182E035
:10338000C80ED11C01E010E020E030E040E050E049
:1033900060E070E0C6010E945F252B813C818901BD
:1033A00020E030E040E050E060E070E0C6010E94C4
:1033B0005F25B501C6010E940419D701ED91FC916A
:1033C0000680F781E02D21E040E050E060E070E011
:1033D000C70109950F900F900F900F90DF91CF913B
:1033E0001F910F91FF90EF90DF90CF90BF90AF9023
:1033F00008950C941D378F929F92AF92BF92CF92F7
:10340000DF92EF92FF92DC011296ED91FC911397FF
:103410003197EF30F10538F5ED5BFF4F0C943F36F7
:1034200061E070E022C0ED91FC9160817181828148
:1034300093810E943A3519C08D919C910E948D1301
:10344000622F732F12C08D919C910E948D134901A0
:10345000662777276819790908C087E090E01396F6
:103460009C938E93129760E070E0CB01FF90EF90F9
:10347000DF90CF90BF90AF909F908F9008952F9244
:103480003F924F925F926F927F928F929F92AF92F4
:10349000BF92CF92DF92EF92FF920F931F93CF9341
:1034A000DF936C01222EC32FD42FF52EE62EB72EDC
:1034B000E0E0F02FFF779801422D5C2F6D2F7F2DDC
:1034C0008E2D9B2D07E00E946036322E432E542E07
:1034D000652E762E872E982EA92E022F132F242E9E
:1034E000E301F72EE82EB92E9801452D5C2F6D2FA4
:1034F000782D892D9A2DA0E00E947C3609F0F06885
:10350000D6018D919C918E0F911DDC01FC93EF5F94
:10351000232D342D452D562D672D782D892D9A2D4F
:10352000A0E00E947C3629F6DF91CF911F910F9188
:10353000FF90EF90DF90CF90BF90AF909F908F90D3
:103540007F906F905F904F903F902F900895FC0177
:10355000208131812830310531F02F30310529F0BB
:103560002530310539F481E0089526E030E0FC0192
:103570003183208380E00895FC01228133812F3044
:10358000310569F420911104211103C026E030E0D7
:1035900002C025E030E0FC013383228308950296C7
:1035A0000E94A71A20910F0430911004882349F03B
:1035B000E091F002F091F102648181E080931104C6
:1035C00003C01092110460E0C9010C94D712CF938C
:1035D000DF93FC0120813181232B89F4EC01E09100
:1035E0000201F09103010190F081E02D82E091E071
:1035F00009959C019983888381E0232B09F480E05D
:10360000DF91CF9108957F928F929F92AF92BF9258
:10361000CF92DF92EF92FF920F931F93CF93DF939E
:103620006C01FB01309719F487E090E04CC06130E9
:10363000710519F488E090E046C0AB0177FF04C043
:1036400044275527461B570BD42F152FC52FCC0FBA
:10365000CC0B942EA52EBC2E0C2FEC2EFC2E7C2EEB
:103660008C2EB1E0292D3A2D4B2D502FB701872DEF
:10367000982D07E00E946036922EA32EB42E052FBF
:103680007B01782E892EA0E00E947C3611F0BF5F6E
:10369000E9CF7F016B2F70E0C6010E94E71A8823F3
:1036A000A9F00D2F2C2F3C2F4C2F5C2F6C2F7C2F33
:1036B000C6010E943F1A1E141F041CF082E090E015
:1036C00002C081E090E0F60193838283DF91CF9185
:1036D0001F910F91FF90EF90DF90CF90BF90AF9030
:1036E0009F908F907F900895FC01228133812F302D
:1036F000310541F4E091F002F091F10264817581AD
:103700000C94031B0E94FB19BC018091F002909164
:10371000F1020C94F00AFC01228133812F30310533
:1037200041F4E091EA02F091EB02648175810C941E
:10373000031B0E94FB19BC018091EA029091EB02ED
:103740000C94F00AFC01228133812F30310541F4C1
:10375000E091EC02F091ED02648175810C94031B01
:103760000E94FB19BC018091EC029091ED020C9437
:10377000F00A0F931F93CF93DF93EC01E091EE02D9
:10378000F091EF021181111103C087E090E02CC08D
:10379000113019F488E090E027C0212FE1E030E0FB
:1037A00040E050E060E070E080E090E007E00E94E0
:1037B0006036A0E00E947C3619F0EF5F21E0EFCF89
:1037C0006E2F70E0CE010E94E71A882379F0012F56
:1037D00010E020E030E040E050E060E070E0CE013A
:1037E0000E943F1A81E090E09B838A83DF91CF9112
:1037F0001F910F9108950F931F93CF93DF9300D0E4
:10380000CDB7DEB78C0169837A830E94D129FC0190
:1038100069817A81892BE9F0D8018D919C9111976A
:10382000892B19F4ED93FC930CC0D80112968D915D
:103830009C911397DC011596FC93EE931497978354
:103840008683D8011396FC93EE931297CF010E94C2
:10385000CB28C8010F900F90DF91CF911F910F914E
:103860000895CF92DF92EF92FF920F931F93CF9321
:10387000DF938C016B01DC011296ED90FC901397A5
:10388000E701209771F068817981C6010E9498381C
:10389000892B19F4CE0104963AC00A80DB81C02D31
:1038A000F0CF8AE190E00E948836FC01D182C0828C
:1038B000138212829C012C5F3F4F15821482178263
:1038C0001682138612861486158616861786108A27
:1038D000118A128A138A8EE691E0958B848B178A5F
:1038E000168A118E108EEF2819F4E801FB83EA8303
:1038F000E801AC81BD81109721F01396FC93EE9303
:103900001297D8011596FC93EE931497C901DF9195
:10391000CF911F910F91FF90EF90DF90CF9008957E
:103920000895AF92BF92CF92DF92FF920F931F93B1
:10393000CF93DF931F92CDB7DEB75C016B01F22E00
:1039400063E172E0DC018D919C9149830E94D00E6D
:10395000B601F501808191810E94080E498150E0F5
:1039600060E070E02AE0D5018D919C910E94410EAB
:103970006F2DF501808191810E94010EA80160E008
:1039800070E02AE0D5018D919C910E94410E60E18A
:1039900072E0F501808191810E94D00ED5018D9158
:1039A0009C91DC01ED91FC910680F781E02D099559
:1039B00060E070E0CB010F90DF91CF911F910F91EC
:1039C000FF90DF90CF90BF90AF900C94B20FCF924A
:1039D000DF92EF92FF920F931F93CF93DF931F928B
:1039E000CDB7DEB76C017B018A0163E172E0DC01D7
:1039F0008D919C9129830E94D00EB701F6018081A0
:103A000091810E94080EB801D6018D919C910E946F
:103A1000D00E2981622FF601808191810E94010ED2
:103A200060E172E0D6018D919C910E94D00EF6016A
:103A300080819181DC01ED91FC910680F781E02D80
:103A4000099560E070E0CB010F90DF91CF911F915D
:103A50000F91FF90EF90DF90CF900C94B20F0F93E7
:103A60001F93CF93DF93EC018B0163E172E08881B8
:103A700099810E94D00EB801888199810E94080E18
:103A800060E172E0888199810E94D00E88819981DD
:103A9000DC01ED91FC910680F781E02D099560E055
:103AA00070E0CB01DF91CF911F910F910C94B20F79
:103AB0002F923F924F925F926F927F928F929F923E
:103AC000AF92BF92CF92DF92EF92FF920F931F932C
:103AD000CF93DF93CDB7DEB760970FB6F894DEBF14
:103AE0000FBECDBF5C0180E294E00E942D0B8C01E3
:103AF0006CE872E0C5010E94BA28B8010E94031B5D
:103B00008DE194E00E942D0B8C0166E972E0C50105
:103B10000E94BA28B8010E94031B809117040E94DA
:103B2000F811BC01990F880B990B0E94EE3220E02E
:103B300030EC4FE754E40E94C83420E030E040E726
:103B400051E40E944D336B017C0160EA72E0C501D3
:103B50000E94BA281C01C701B6010E943A352B0108
:103B60003C010E94EE329B01AC01C701B6010E94EC
:103B7000E732811170C0411451046104710441F4B1
:103B800087E090E0D10113969C938E93129778C0B2
:103B9000B1E04B1651046104710419F488E090E01F
:103BA00056C0D301C20177FE07C088279927DC01E0
:103BB00084199509A609B7098D879E87AF87B88BA9
:103BC0006C017D01FF0CCC08DC2C7601982E092FAE
:103BD0001A2FFC2DEC2DCC868C2C81E08B87292D87
:103BE000302F412F5B2F6F2F7E2F8C85982D07E074
:103BF0000E946036922E032F142FB52FF62FE72F39
:103C00008C87892EA0E00E947C3621F0AB85AF5FC7
:103C1000AB87E5CFBB856B2F70E0C1010E94E71A2F
:103C2000882371F10D851E852F8538894C2D5C2DDB
:103C30006C2D7C2DC1010E943F1A1414150416042A
:103C400017041CF082E090E002C081E090E0F101F6
:103C50009383828315C083E090E0D10113969C93F7
:103C60008E93129764E070E0C1010E94E71A8823E6
:103C700039F0D101ED91FC91C082D182E282F382D0
:103C80008090E6029090E70266EF73E0C4010E9424
:103C90002F1D00E010E020E030E04BEF53E06EEE2F
:103CA00073E0C4010E9465238130E9F4F40160816E
:103CB00071814CE2CE0101960E94C111CE010196A4
:103CC0000E9472106B017C01CE0101960E94491185
:103CD00020E030E04BEF53E063E074E0C4010E9469
:103CE0006523860102C003E610E068EA72E0C501C0
:103CF0000E94BA28B8010E94031B8E010F5F1F4F5C
:103D00004E01FBE08F0E911C7801809114040E94FB
:103D1000F811D7018D939D937D016AE070E080E0FA
:103D200090E00E94B20FE814F90479F7C12CD12C6D
:103D30007601F801619171918F01072E000C880BBB
:103D4000990B0E94EE329B01AC01C701B6010E94A3
:103D50005C346B017C010815190559F720E030E04F
:103D600040EA50E40E94C8349B01AC0160E070EC72
:103D70008FE794E40E94C83420E030E040E85FE33D
:103D80000E945B3420E030E04AE754E40E944D3367
:103D900020E030E04AE754E40E94C8340E947835BD
:103DA0006B017C016FEA72E0C5010E94BA288C01A8
:103DB00023E333E145E953E4C701B6010E944D33E3
:103DC00020E030EE48E555E40E945C349B01AC01F4
:103DD00068E475E98CE799E40E94C83423E333E989
:103DE00048E853E40E945B340E943A35C8010E94BF
:103DF000031B60960FB6F894DEBF0FBECDBFDF91F8
:103E0000CF911F910F91FF90EF90DF90CF90BF90D7
:103E1000AF909F908F907F906F905F904F903F906A
:103E20002F900895EF92FF920F931F93CF93DF93FC
:103E30001F92CDB7DEB77C018B0163E172E0DC013C
:103E40008D919C9149830E94D00EB801F701808129
:103E500091810E94080E498150E060E070E02AE004
:103E6000D7018D919C910E94410E60E172E0F701B3
:103E7000808191810E94D00ED7018D919C91DC01AF
:103E8000ED91FC910680F781E02D099560E070E0EE
:103E9000CB010F90DF91CF911F910F91FF90EF9089
:103EA0000C94B20F1F920F920FB60F9211242F9302
:103EB0005F936F937F938F939F93AF93BF9321E013
:103EC0002093F20280913E0390913F0301969093DC
:103ED0003F0380933E0380913E0390913F036CE348
:103EE00070E00E94F535892B11F420930101BF91F8
:103EF000AF919F918F917F916F915F912F910F90D3
:103F00000FBE0F901F9018958F929F92AF92BF9205
:103F1000EF92FF920F931F93CF93DF931F92CDB732
:103F2000DEB77C01FC01108211821282138200E054
:103F300010E0E0912B04F0912C040190F081E02D31
:103F400041E050E0BE016F5F7F4F8BE294E0099546
:103F5000882321F10332110501F19981492F4F770F
:103F600050E060E070E0002E04C0440F551F661F53
:103F7000771F0A94D2F7F70180809180A280B380E6
:103F8000482959296A297B29408351836283738395
:103F9000095F1F4F97FDCDCF01C080E00F90DF91EB
:103FA000CF911F910F91FF90EF90BF90AF909F9096
:103FB0008F900895CF93DF931F92CDB7DEB7E09136
:103FC0002B04F0912C040190F081E02D41E050E0B1
:103FD000BE016F5F7F4F8BE294E009959981913824
:103FE00010F08111ECCF0F90DF91CF910895EF92F7
:103FF000FF920F931F93CF93DF931F92CDB7DEB73E
:104000007C0100E010E081E00E151F05A1F088237F
:1040100091F0E0912B04F0912C040190F081E02DBF
:1040200041E050E0BE016F5F7F4F8BE294E0099565
:104030000F5F1F4FE9CF0F90DF91CF911F910F912D
:10404000FF90EF9008952F923F924F925F926F9260
:104050007F928F929F92AF92BF92CF92DF92EF9218
:10406000FF920F931F93CF93DF93CDB7DEB72E97B9
:104070000FB6F894DEBF0FBECDBF7C0119821A8245
:104080001B821C82CE0101960E94841FD82E882399
:1040900009F4D3C189809A80AB80BC80C401877049
:1040A000992723E0B694A794979487942A95D1F7FB
:1040B000D70113969C928E921297029709F02FC106
:1040C0001B861C861D861E86CE010B960E94841FB1
:1040D000D82E882309F4B1C1BBE08B169104A1044A
:1040E000B10499F138F4F9E08F169104A104B104F8
:1040F00081F0A3C12DE082169104A104B10409F45A
:1041000058C03EE083169104A104B10409F4C2C072
:1041100094C18B859C85AD85BE858F3FEFEF9E0753
:10412000AE07BE0709F489C1BC016F5F7F4FC701AD
:104130000E94E71A882309F480C16B857C85D7012A
:104140008D919C910E94EB2937C12B843C844D8436
:104150005E8442013101A12CB12C6501E1E09301A3
:10416000A401B501C60107E00E94603639014A0189
:104170005B016C01A0E00E947C3611F0EF5FEFCF95
:104180008E2F90E0A0E0B0E080959095A095B0953E
:1041900082159305A405B50508F44FC1CE2ED12C88
:1041A000B601620D731DC7010E94E71A811106C195
:1041B00044C1F70180819181892B09F03EC10E94A1
:1041C0008C295C01D7018D939C93892B09F435C10F
:1041D0006B847C8480902D0490902E0480912D041B
:1041E00090912E04F301E81BF90BCF01880D991D66
:1041F000892B09F423C10E94B4297C01892B09F47D
:104200001CC1F50180819181892B19F4F182E08232
:104210000AC00280F381E02DF782E682D701199669
:10422000FC93EE931897F501F382E282CE0101969A
:104230000E94841F882309F400C189819A81AB817F
:10424000BC818F3FFFEF9F07AF07BF0709F4F5C0A1
:10425000E0910201F0910301BC016F5F7F4F01907B
:10426000F081E02D82E091E00995D7018D939C9338
:10427000009709F4E2C069817A810E94EB298823C2
:1042800009F4DBC0C70102960E942320882309F4A9
:10429000D4C0A4CFD7018D919C91892B09F0CDC0BA
:1042A0000E94A0295C01F70191838083892B09F486
:1042B000C4C08B849C84E0902D04F0902E048091E7
:1042C0002D0490912E049401281B390BC9018E0DE9
:1042D0009F1D892B09F4B2C00E94D129009709F4CF
:1042E000ACC0D5012D913C911197232B19F48D93DE
:1042F0009C930CC0D5011296ED91FC911397958378
:104300008483DC011796FC93EE931697F501938353
:1043100082830E942320882309F48FC0D0CF30E10C
:104320008316910408F089C0F401EE5AFF4F0C94F3
:104330003F361B86CE0101966C0110E0E0912B0404
:10434000F0912C040190F081E02D41E050E0BE019D
:10435000655F7F4F8BE294E00995811151C06DC07C
:1043600064E070E0C7010E94E71A882309F465C081
:10437000E0912B04F0912C04D7016D917C91019078
:10438000F081E02D44E050E014C068E070E0C70127
:104390000E94E71A882309F450C0E0912B04F091A1
:1043A0002C04D7016D917C910190F081E02D48E0C3
:1043B00050E08BE294E00995D82E40C0E0912B04A8
:1043C000F0912C044B855C85D7016D917C916C0D2F
:1043D0007D1D0190F081E02D8BE294E00995D82EAF
:1043E000882359F14B855C856D857E858A019B010B
:1043F00040E050E060E070E0C7010E943F1A1EC03C
:104400008B85F60181936F011F5F87FF03C01A3010
:10441000A1F094CFA12EB12CB501C7010E94E71ADB
:10442000D82E882359F0A501BE016F5F7F4FD701B9
:104430008D919C910E94843801C0D12C8D2D2E9697
:104440000FB6F894DEBF0FBECDBFDF91CF911F91A5
:104450000F91FF90EF90DF90CF90BF90AF909F9023
:104460008F907F906F905F904F903F902F90089526
:10447000CF93DF93009781F0EC010E945503E09108
:104480000201F09103010280F381E02DBE0182E080
:1044900091E0DF91CF910994DF91CF910895E09160
:1044A0000201F09103010190F081E02D64E070E0E1
:1044B00082E091E00995009739F0FC0111821082A9
:1044C0002FE030E03383228308959F92AF92BF9212
:1044D000CF92DF92EF92FF920F931F93CF93DF93D0
:1044E000CDB7DEB72C970FB6F894DEBF0FBECDBFA9
:1044F0008C0119861A861B861C86CE0109960E949D
:10450000841F982E882309F4CDC089859A85AB85B0
:10451000BC8581309105A105B10559F00297A1052F
:10452000B10509F0BEC081E0809335040E94DA1F16
:10453000B8C01D821E821F821886CE0105960E9479
:10454000841F982E882309F4ADC0CD80DE80E090D2
:104550002D04F0902E04580126E0A20EB11C80918B
:104560002D0490912E049601281B390BC9018E0D44
:104570009F1D892B09F496C019821A821B821C8206
:10458000CE0101960E94841F882309F48AC04981C4
:104590005A816B817C81CA018770992723E07695C7
:1045A0006795579547952A95D1F78230910579F00F
:1045B0003CF40097D1F0019791F688E090E06DC04F
:1045C0008530910509F467C00697E9F1C8CF1982D3
:1045D0001A821B821C82CE0101960E94841F8823AE
:1045E00009F45FC089819A8158C041305105610545
:1045F0007105B1F0423051056105710509F5198267
:104600001A821B821C82CE0101960E94841F88237D
:1046100009F447C089819A81F801938382839FCFEF
:1046200019821A821B821C82CE0101960E94841F6D
:104630008823B9F189819A81F801918380838FCF92
:104640000E94DA1F2CC04430510561057105C9F084
:104650004630510561057105C1F0433051056105D2
:10466000710509F07CCFF80184819581892B29F4AB
:104670000E944F22F80195838483F80184819581FB
:1046800007C0C5010E947D1303C0C8010E943625E2
:104690000E94232004C084E090E00E94F71F811153
:1046A0005ECF912C892D2C960FB6F894DEBF0FBEED
:1046B000CDBFDF91CF911F910F91FF90EF90DF90D1
:1046C000CF90BF90AF909F900895AF92BF92CF923E
:1046D000DF92EF92FF920F931F93A12CB12C6801F0
:1046E00079018A019B0148EE53E060E070E00E948E
:1046F000CD031F910F91FF90EF90DF90CF90BF906F
:10470000AF9008954F925F926F927F92AF92BF9257
:10471000CF92DF92EF92FF920F931F93CF93DF938D
:10472000EC010E94EC0F2B013C010E94EC0FDC011C
:10473000CB0184199509A609B70980319742A105D3
:10474000B10538F568E074E0CE010E942F1DA12C60
:10475000B12CC12CD12CE12CF12C0BEF13E023E078
:1047600034E048EC50E060E070E0CE010E94CD0300
:10477000813041F464E670E080E090E00E94B20F86
:1047800081E008C064E670E080E090E00E94B20F33
:10479000CCCF80E0DF91CF911F910F91FF90EF90F0
:1047A000DF90CF90BF90AF907F906F905F904F90D1
:1047B00008950F931F93CF93DF93CDB7DEB72B9759
:1047C0000FB6F894DEBF0FBECDBF8C011E821D82D6
:1047D00018861F821A8619861B86FC01868197819E
:1047E0009A8389837C836B83CE0101960E94362550
:1047F0000E947E27BC01C8010E94F324BE016F5FA6
:104800007F4F83E294E00E94A419CE0101960E949A
:1048100048252B960FB6F894DEBF0FBECDBFDF91B3
:10482000CF911F910F9108950F931F93CF93DF9313
:10483000CDB7DEB72B970FB6F894DEBF0FBECDBF56
:1048400065E372E086E394E00E94311C8C011A82D9
:1048500019821E821D8218861F821A8619861B865F
:104860008AE090E09C838B830E944F229E838D83FD
:1048700064EB72E00E94CB28CE0101960E9436259F
:10488000D8012D913C9111972330310529F41496CC
:10489000ED91FC9115970995BE016F5F7F4F83E203
:1048A00094E00E94A419182FCE0101960E94482579
:1048B000812F2B960FB6F894DEBF0FBECDBFDF91D0
:1048C000CF911F910F910895CF93C0E0FB01EC0FA2
:1048D000F11D2081CF5F27FDF9CFDC01ED91FC9127
:1048E0004C2F50E00190F081E02D09958C2FCF9155
:1048F0000895FC0122813381420F531F5383428369
:1049000081E00895FC0122813381420F531F5383BC
:10491000428381E00895EF92FF920F931F93CF930C
:10492000DF938C017B01DC01CD91DC91209769F054
:1049300088819981009729F0B7010E949838892BC6
:10494000A9F10E80DF81C02DF1CF0E94B429EC01C6
:10495000892B79F1F80180819181892B19F4D18318
:10496000C08307C00280F381E02DD783C683F98717
:10497000E887F801D383C283F70101900020E9F7AB
:104980008F010E191F09E0910201F09103010190BE
:10499000F081E02DB80182E091E009959983888348
:1049A000009721F0A801B7010E948438CE01029639
:1049B00013C08091440381110DC0109241031092E5
:1049C00040038FE090E0909343038093420381E0A3
:1049D0008093440380E493E0DF91CF911F910F9186
:1049E000FF90EF900895EF92FF920F931F93CF9354
:1049F000DF93FC01EB01808191818230910529F4E4
:104A0000048115816BEB72E007C08330910579F466
:104A1000048115816EEB72E0CE010E948B24F801B7
:104A2000DF91CF911F910F91FF90EF900994049720
:104A3000B1F4048115816EEB72E0CE010E948B24EB
:104A40007C016BEB72E0CE010E948B24B701F80170
:104A5000DF91CF911F910F91FF90EF900994DF911B
:104A6000CF911F910F91FF90EF900895CF93DF9317
:104A7000EC0188859985892B31F40E944F22998712
:104A8000888781E08A8788859985DF91CF9108950D
:104A9000CF93DF93EC018C819D810E9438228E811F
:104AA0009F810E9438228A85882331F088859985E4
:104AB000DF91CF910C943822DF91CF9108952F92FE
:104AC0003F924F925F926F927F928F929F92AF929E
:104AD000BF92CF92DF92EF92FF920F931F93CF93EB
:104AE000DF9300D01F92CDB7DEB75C01F22EE32E2C
:104AF000D42EC52E962E872EE02FEF7798014F2DBE
:104B00005E2D6D2D7C2D892D982D07E00E9460363D
:104B100019012A013B018A839B838901F42EE52C2C
:104B2000D62EC72C982E892E442D552D662D772DE7
:104B3000A0E00E947C3609F0E068E983D501ED91A0
:104B4000FC910190F081E02D41E050E0BE016F5FEB
:104B50007F4FC50109959101A201B3018A819B8113
:104B6000A0E00E947C3641F60F900F900F90DF91ED
:104B7000CF911F910F91FF90EF90DF90CF90BF905A
:104B8000AF909F908F907F906F905F904F903F90ED
:104B90002F900895CF92DF92EF92FF920F931F9381
:104BA000CF93DF936115710529F1EB016C01FB01D6
:104BB00001900020E9F731977F01E61AF70A870193
:104BC00020E030E040E050E060E070E00E945F25CF
:104BD000D601ED91FC910190F081E02DA701BE017D
:104BE000C601DF91CF911F910F91FF90EF90DF9061
:104BF000CF900994DF91CF911F910F91FF90EF908B
:104C0000DF90CF900895EF92FF920F931F93CF9371
:104C1000DF937C01FB01C081D181209779F0FE01F7
:104C2000619171918F01C7010E94CA25B801C70126
:104C30000E9425260E80DF81C02DEFCFDF91CF911E
:104C40001F910F91FF90EF900895CF92DF92EF9216
:104C5000FF920F931F93CF93DF9300D000D000D02B
:104C6000CDB7DEB77C016B01DB0112964D915C91F3
:104C70001397FA013197EE30F10508F0D4C0EE59E0
:104C8000FF4F0C943F36FB01C080D1800AE410E056
:104C900020E030E040E050E060E070E00E945F25FE
:104CA000B601C7010E94CA25CFC00AE510E020E086
:104CB00030E040E050E060E070E00E945F25D70106
:104CC000ED91FC9100811181F601C080D180C60177
:104CD0000E948D13B601C7012D833E830E94642478
:104CE000B601680F711D2D81422F3E81532FC701E0
:104CF000F8012FC09A0140E050E060E070E080E0F1
:104D000090E003E00E94453689019A01AB01BC01A5
:104D1000C7010E945F25D6016D917C91C7010E9459
:104D2000642492C0FB01C080D1800DE110E020E03E
:104D300030E040E050E060E070E00E945F25D70185
:104D4000ED91FC910190F081E02D44E050E0B6013E
:104D5000C701099579C0FB01C080D18001E210E054
:104D600020E030E040E050E060E070E00E945F252D
:104D7000D701ED91FC910190F081E02D48E050E0E9
:104D8000E6CFFB01C080D1800AE610E020E030E0F1
:104D900040E050E060E070E00E945F2588E891E02C
:104DA0009A8389831C821B82B601CE0101960E94E0
:104DB00003262B813C81890120E030E040E050E077
:104DC00060E070E0C7010E945F25B601C7010E9444
:104DD00003263AC0DB01CD90DC9002E710E020E032
:104DE00030E040E050E060E070E00E945F2588E83D
:104DF00091E09A8389831C821B82B601CE010196C1
:104E00000E9433272B813C81890120E030E040E083
:104E100050E060E070E0C7010E945F25B601C70165
:104E20000E94332711C09A0140E050E060E070E03A
:104E300080E090E003E00E94453689019A01AB01D1
:104E4000BC01C7010E945F2526960FB6F894DEBF0D
:104E50000FBECDBFDF91CF911F910F91FF90EF90CB
:104E6000DF90CF9008950F931F93CF93DF938C0122
:104E7000FB01C081D181209741F0BE01C8010E9491
:104E800025260C80DD81C02DF6CFDF91CF911F91BB
:104E90000F910895CF93DF93EC018A819B810E9748
:104EA00069F00E94A02999838883892B19F48FE0E7
:104EB00090E002C08EE090E09B838A832881398154
:104EC0002115310521F08A819B810E9781F0809117
:104ED0005C0381110EC01092590310925803109276
:104EE0005B0310925A0381E080935C0302C0C90106
:104EF00002C088E593E0DF91CF910895CF93DF93CF
:104F0000EC018A819B810D9769F00E948C2999831D
:104F10008883892B19F48FE090E002C08DE090E047
:104F20009B838A83288139812115310521F08A816B
:104F30009B810D9781F08091500381110EC01092DA
:104F40004D0310924C0310924F0310924E0381E0D8
:104F50008093500302C0C90102C08CE493E0DF914A
:104F6000CF9108953F924F925F926F927F928F926E
:104F70009F92AF92BF92CF92DF92EF92FF920F93E8
:104F80001F93CF93DF935C016B01FC0180819181C2
:104F9000892B09F4BFC0E280F3806CEA72E0C6019D
:104FA0000E948B244C01E114F10419F487E090E095
:104FB0004EC0F1E0EF16F10419F488E090E047C02C
:104FC000A701F7FE04C0442755274E195F09D42FC7
:104FD000152FC52FCC0FCC0B542E652E7C2E0C2FED
:104FE000BC2FFC2F3C2E4C2EE1E0252D362D472DDD
:104FF000502F6B2F7F2F832D942D07E00E9460365A
:10500000522E632E742E052FB62FF72F382E492ED1
:10501000A0E00E947C3611F0EF5FE7CF6E2F70E0CA
:10502000C4010E94E71A8823A9F00D2F2C2F3C2FD2
:105030004C2F5C2F6C2F7C2FC4010E943F1A1E1432
:105040001F041CF082E090E002C081E090E0F401D7
:1050500093838283F501E080F18062EC72E0C60107
:105060000E948B244C01E114F10419F487E090E0D4
:105070004EC0F1E0EF16F10419F488E090E047C06B
:10508000A701F7FE04C0442755274E195F09D42F06
:10509000152FC52FCC0FCC0B542E652E7C2E0C2F2C
:1050A000BC2FFC2F3C2E4C2EE1E0252D362D472D1C
:1050B000502F6B2F7F2F832D942D07E00E94603699
:1050C000522E632E742E052FB62FF72F382E492E11
:1050D000A0E00E947C3611F0EF5FE7CF6E2F70E00A
:1050E000C4010E94E71A8823A9F00D2F2C2F3C2F12
:1050F0004C2F5C2F6C2F7C2FC4010E943F1A1E1472
:105100001F041CF082E090E002C081E090E0F40116
:1051100093838283F501C289D3892097C9F065EC16
:1051200072E0C6010E948B240E947E278C01688158
:105130007981C8010E948B240E947E27BC01CE0188
:1051400004960E94B2270A80DB81C02D209779F750
:10515000DF91CF911F910F91FF90EF90DF90CF9053
:10516000BF90AF909F908F907F906F905F904F9087
:105170003F900895CF93DF9300D0CDB7DEB769831A
:105180007A830E947E2769817A810F900F90DF9148
:10519000CF910C948B24EF92FF920F931F93CF9398
:1051A000DF93FB0101900020E9F73197E61BF70B35
:1051B00031F42AE030E0FC013383228315C07B0107
:1051C0008C01EF012196BE010E94E71A882361F04D
:1051D000AE01B701F801808191810E94843889E095
:1051E00090E0F80193838283DF91CF911F910F911B
:1051F000FF90EF9008958230C8F4E82FF0E0EE0FB2
:10520000FF1FEC5FFE4F71836083813041F080911E
:1052100069008C7F826080936900E89A089580918C
:105220006900837F886080936900E99A0895CF922E
:10523000DF92EF92FF920F931F93CF93DF938C0136
:105240006B01770FEE08FF08F7FE12C06DE20E94B7
:10525000010EEC0144275527BA014C195D096E096E
:105260007F092AE0C8010E94410EC80FD91F06C05D
:105270002AE0B701A6010E94410EEC0160E172E054
:10528000C8010E942C0E8C0F9D1FDF91CF911F91A2
:105290000F91FF90EF90DF90CF90089580911C04C4
:1052A00081110FC080911B04882311F060E001C0C0
:1052B00061E080911A040E942A0F81E080931C040F
:1052C000089580E0089541E050E06FED72E00C94A5
:1052D000C410CF93DF93EC0188819981DC01ED91BB
:1052E000FC910084F185E02D0995892B31F460E073
:1052F00070E0CB010E94B20FEFCF88819981DC0171
:10530000ED91FC910284F385E02D09958C9721F7AE
:1053100081E0DF91CF910895E0910201F0910301C6
:105320000190F081E02D64E070E082E091E0099569
:10533000009729F0FC0111821082138212820895D5
:10534000E0910201F09103010190F081E02D64E011
:1053500070E082E091E00995009729F0FC0111824C
:105360001082138212820895E0910201F0910301EC
:105370000190F081E02D6AE070E082E091E0099513
:10538000FC01892B61F011821082138212828FE05E
:1053900090E0958384831782168211861086CF0150
:1053A0000895E0910201F09103010190F081E02D58
:1053B00068E070E082E091E00995009759F0FC0107
:1053C000118210822FE030E0338322831582148211
:1053D0001782168208950F931F93CF93DF93009740
:1053E00081F0EB018C01E0912B04F0912C040190F1
:1053F000F081E02DAB01BC018BE294E009958111B5
:1054000002C080E003C0C00FD11F1882DF91CF918E
:105410001F910F910895CF93DF93CDB7DEB76E97AD
:105420000FB6F894DEBF0FBECDBF789484B582600E
:1054300084BD84B5816084BD85B5826085BD85B538
:10544000816085BD80916E00816080936E001092B6
:105450008100809181008260809381008091810031
:1054600081608093810080918000816080938000C2
:105470008091B10084608093B1008091B000816020
:105480008093B00080917A00846080937A0080914C
:105490007A00826080937A0080917A0081608093A4
:1054A0007A0080917A00806880937A001092C1001F
:1054B000E0917403F091750382E08083E0917003C2
:1054C000F09171031082E0917203F091730380E117
:1054D000808310927C03E0917803F091790386E059
:1054E0008083E0917603F0917703808180618083EF
:1054F000E0917603F0917703808188608083E0916A
:105500007603F0917703808180688083E091760351
:10551000F091770380818F7D80836AE070E080E086
:1055200090E00E94B20F1092D4041092D304109213
:10553000D2041092D1041092D0041092CF048DECBA
:1055400090E09093D6048093D5049091C504963151
:1055500008F057C025E530E03093D0042093CF0405
:105560002BEC30E03093D2042093D10420E930E0DA
:105570003093D4042093D30420916800983050F0E5
:1055800031E09E3008F430E081E001C0880F3A95A8
:10559000EAF701C084E0822B80936800983038F0ED
:1055A0009E3040F0963148F020E030E008C02DE613
:1055B00030E005C02BE630E002C02CE630E030934E
:1055C000CD042093CC04983030F481E001C0880FE2
:1055D0009A95EAF70EC0292F30E09E3018F4285033
:1055E000310902C02E50310981E001C0880F2A958F
:1055F000EAF78093CE048091D5049091D604019768
:10560000F1F78091D3049091D404892B49F1E09172
:10561000E402F091E50224E0E93BF20709F130975A
:1056200039F0A389B4899C918589809589238C93CD
:105630008091D7048E7F8093D7041092E30210925A
:10564000E20289EB94E09093E5028093E402E0911A
:10565000CC04F091CD0490818091CE04892B80837D
:1056600068EB7BE080E090E00E94B20F6DE672E0B4
:1056700084E693E00E94080E60E172E084E693E025
:105680000E942C0E82E594E09093E7028093E6025C
:105690000E948223811122C061E089E00E94760F7E
:1056A00060E089E00E942A0F68EE73E080E090E0FD
:1056B0000E94B20F61E089E00E942A0F60ED77E05E
:1056C00080E090E00E94B20F60E089E00E942A0F23
:1056D00068EB7BE080E090E00E94B20F8FEF93E0F8
:1056E0000E940E348D3041F06DE08FEF93E00E9408
:1056F0001634FF24F39401C0F12C82E090E00E9464
:1057000088368C01DC0111961C92FF20C9F060E004
:1057100083E690E00E941634F801108254E6C52E0C
:10572000D12CDA82C9826FEFCE0101960E94560B0E
:10573000F5E0CF0ED11C26E9C216D10491F706C0C0
:1057400083E690E00E940E34D8018C931093EF0210
:105750000093EE028BE090E00E9488366C01EF2C03
:1057600004E610E020E030E04AE050E060E070E065
:105770000E94020BD092EB02C092EA028BE090E012
:105780000E9488366C0120E030E04EE150E062E09B
:1057900070E00E94020BD092ED02C092EC028BE00E
:1057A00090E00E9488366C0120E030E049E150E052
:1057B00064E070E00E94020BD092F102C092F0020D
:1057C00080E191E090934B0480934A048FE091E054
:1057D00090934D0480934C048EE091E090934F049D
:1057E00080934E0466E272E086E394E00E94311CEE
:1057F00002E010E0FC01118300832BEA34E13583E1
:1058000024836CE272E086E394E00E94311C23E082
:10581000E22EF12CDC011196FC92EE9228E53DE19E
:1058200015963C932E93149765E372E086E394E01B
:105830000E94311CFC01F182E08229EB3BE13583BF
:1058400024836BE372E086E394E00E94311CDC0168
:1058500011961C930E9322EA3BE115963C932E93EE
:10586000149767E472E086E394E00E94311CFC0127
:10587000118300832BE83BE13583248362E572E0EA
:1058800086E394E00E94311CDC0111961C930E9378
:1058900024E73BE115963C932E93149761E672E062
:1058A00086E394E00E94311CFC01118300832CEB01
:1058B0003AE135832483F89410928000109281009D
:1058C000109285001092840088E09DE390938900F7
:1058D000809388008091810088608093810080910E
:1058E000810085608093810080916F008260809349
:1058F0006F00789463E672E084E693E00E94080EFD
:1059000060E172E084E693E00E942C0E32E0432EC8
:10591000512C45E0242E312C80913C0490913D0483
:10592000DC01ED91FC910688F789E02D0995811144
:105930004FC1E0912304F09124040484F585E02D07
:1059400083E294E00995882391F080913C04909142
:105950003D04DC01ED91FC910488F589E02D099569
:1059600083E294E00E94EB1381110EC06DC0E091C0
:105970002304F09124040284F385E02D83E294E073
:1059800009958111E2CF60C0009142041091430457
:10599000E0904004F0904104C0903E04D0903F0459
:1059A00081E0809335041D861C86198A188A1B8A1B
:1059B0001A8A1D8A1C8A1E8A3F862E86CE0142962E
:1059C0000E947D130E944A27B6010E94FB1BB7016B
:1059D0000E94FB1BB8010E94FB1BBE01645F7F4F4E
:1059E00083E294E00E94A419182F8823E1F01A8220
:1059F00019821C821B821E821D8218861F821A86B3
:105A000019861B86CE0101960E946522182F8823D5
:105A100031F011E08B819C81019709F010E0CE01FB
:105A200001960E944825CE010C960E94482511112E
:105A3000CFC080913C0490913D04DC01ED91FC913C
:105A40000488F589E02D099568E873E180E090E02D
:105A50000E94B20F8091F202882321F11092F2028B
:105A6000E091F002F091F1028285882359F064817F
:105A700080911104882331F080910F0490911004DB
:105A80000E94D7126DE672E084E693E00E94D00E89
:105A9000E091F002F091F1026481758184E693E077
:105AA0000E94172980910101882309F48EC0109269
:105AB000010180910001882399F01092000181E09A
:105AC00089831A821B821C821D82BE016F5F7F4FF9
:105AD0008091EE029091EF020E94A10B0E9414248B
